:100000000C9456230C9487230C9487230C948723F9
:100010000C9487230C9487230C9487230C948723B8
:100020000C9487230C9487230C9487230C948723A8
:100030000C9487230C9487230C9487230C94872398
:100040000C9487230D94BF260C9487230C9487234C
:100050000C9487230C9487230D94970F0C942CFBFE
:100060000C9487230C94643A0C9487230C94872374
:100070000C9487230C9487230C9487230C94872358
:100080000C9487230C9487230C9487230C94872348
:100090000C9487230C9487230C9487230C94872338
:1000A0000C9487230C9487230C9487230C94872328
:1000B0000C9487230C9487230C9487230C94872318
:1000C0000C9487230C9487230C9487230C94872308
:1000D0000C9487230C9487230C9487230C948723F8
:1000E0000C948723EABED0BED3BED6BED9BEE5BE31
:1000F000DCBEF5BEDFBEE2BE9FEBA2EB91EB95EB63
:100100009BEBD9EBA6EBAAEBB0EBB4EBB8EBBEEBF9
:10011000C2EBC6EBD9EBCCEBD0EBD4EB12F117F181
:100120001CF126F130F1A9F13AF142F14AF154F112
:100130005EF168F177F181F1A9F18BF195F19FF111
:1001400018010A010E013E01380110011E012001B3
:1001500022012A0124011A0124012401240124017D
:100160002401240124012401240124012401240167
:100170002401240124012401240124012401240157
:100180002401240124012401240124012801240143
:100190002401240124012401240124012401140147
:1001A0002401240124012401240124012401240127
:1001B0002401240132010601084AD73B3BCE016EDF
:1001C00084BCBFFDC12F3D6C74319ABD56833DDAAE
:1001D0003D00C77F11BED9E4BB4C3E916BAAAABEBD
:1001E000000000803F05A84CCDB2D44EB93836A9E6
:1001F000020C50B9918688083CA6AAAA2ABE000023
:1002000000803F000D94AF070D943E040D94E71A53
:100210000D94A93F0D94E50E0D9487040D94EA0EFC
:100220000D94FD0E0D9416070D94371C0D94463F4A
:100230000D94210E0D94641C0D9484040D94020FF2
:100240000D94110E0D94281C0D94EA1A0D945E3134
:100250000D945E1C0D94B11A0D94CF050D9461049C
:100260000D9429070D947B1C0D940A040D948A04A7
:100270000D94210F0D944B0B0D944D1A0D94150FE9
:100280000D9414074E414E494E495459494E46CD9E
:10029000CCCC3D0AD7233C17B7D13877CC2B32953D
:1002A00095E6241FB14F0A000020410000C842001B
:1002B000401C4620BCBE4CCA1B0E5AAEC59D744C99
:1002C0004556454C494E4700434F4D4D554E4943C9
:1002D0004154494F4E0044525952554E00455252D6
:1002E0004F525300494E464F004543484F00473256
:1002F0002F47332062616420706172616D6574659F
:1003000072730A00536C6565702E2E2E003C3C3CC7
:10031000205A5F534146455F484F4D494E470A00BA
:10032000203A205A5F534146455F484F4D494E475A
:100330000A00202064657374696E6174696F6E3D94
:10034000005A5F534146455F484F4D494E47203E56
:100350003E3E0A00486F6D652058592066697273E9
:10036000740A00486F6D652058592066697273746D
:10037000003C3C3C204732380A003C3C3C204732A1
:10038000380A005261697365205A20286265666FD9
:10039000726520686F6D696E672920746F20003E5A
:1003A00020656E6473746F70732E656E61626C6528
:1003B0002874727565290A003E20686F6D696E6742
:1003C000206E6F74206E65656465642C20736B69A4
:1003D000700A003E3E3E204732380A00205A3A203A
:1003E0000020593A200042656420583A20004D65AB
:1003F000736820706F696E742063616E6E6F742015
:100400006265207265736F6C7665640A00436C697F
:10041000636B20746F20726573756D652E2E2E00D0
:100420004E6F206D6F76652E00456E642066696C98
:1004300065206C6973740A00426567696E2066699D
:100440006C65206C6973740A004D31323500286E7A
:100450006F2066696C6529005344207072696E7460
:10046000696E67206279746520004E6F7420534472
:10047000207072696E74696E670A004375727265E6
:100480006E742066696C653A2000256973002569E1
:100490006D20256973002569682025696D2025690F
:1004A0007300256964202569682025696D20256908
:1004B00073002569792025696420256968202569EC
:1004C0006D20256973005072696E742074696D65C2
:1004D0003A20006F6E2E0A006F66662E0A004732C1
:1004E000362044656275672000E902E402DD02D629
:1004F00002C802BF026F66660044454255473A0093
:100500004B494C4C45442E20004D31313320530093
:100510006F6B00426967426F78204475616C204FB1
:1005200066662E002C20002C2000544845524D4178
:100530004C5F50524F54454354494F4E004155541F
:100540004F5245504F52545F53445F53544154559A
:100550005300454D455247454E43595F5041525314
:10056000455200434153455F4C494748545F42520E
:10057000494748544E45535300544F47474C455FF5
:100580004C494748545300534F4654574152455FD6
:10059000504F574552004255494C445F50455243D5
:1005A000454E54004C4556454C494E475F444154D6
:1005B00041005A5F50524F4245004155544F4C45FF
:1005C00056454C005052494E545F4A4F42005052DB
:1005D0004F4752455353004155544F5245504F5287
:1005E000545F54454D5000564F4C554D455452495B
:1005F0004300454550524F4D0053455249414C5FD1
:10060000584F4E5F584F4646004649524D5741524B
:10061000455F4E414D453A4D61726C696E20312EF9
:10062000312E392D424244206D61726B6F617572BB
:10063000656C696A6520312E312E39204269674226
:100640006F78204475616C20534F555243455F438A
:100650004F44455F55524C3A68747470733A2F2F6B
:100660006769746875622E636F6D2F6D61726B6F51
:10067000617572656C696A652F4D61726C696E2F68
:10068000747265652F426967426F78312E312E3959
:100690002050524F544F434F4C5F56455253494F91
:1006A0004E3A312E30204D414348494E455F545912
:1006B00050453A426967426F78204475616C204525
:1006C000585452554445525F434F554E543A322088
:1006D000555549443A63656465326132662D34315B
:1006E00061322D343734382D396231322D6335354E
:1006F0006336326633363766660A002F2F20004D88
:1007000031343520533C696E6465783E206F7574D2
:10071000206F662072616E67652028302D31290AAE
:1007200000205400205200416363656C657261745F
:10073000696F6E3A205000486F74656E64206F6672
:1007400066736574733A0020466C6F773A20000038
:100750000111103025FFFFFFFF362F3723FFFFFF6A
:10076000FF39383E21FFFFFFFFFFFF2D090708FF7C
:10077000FF171618FFFFFF1A191BFFFFFF094102A1
:10078000084003083F43290A0061626C6564202821
:100790006D696E2074656D702000436F6C64206518
:1007A0007874727564657320617265200020643A04
:1007B0000020693A0020703A004E6F206361736533
:1007C000206C696768740A004D65736820706F69F2
:1007D0006E742063616E6E6F742062652072657343
:1007E0006F6C7665640A004D34323120696E636F38
:1007F000727265637420706172616D6574657220D8
:1008000075736167650A00454550524F4D204F4B47
:100810000A003F5A206F7574206F662072616E6700
:100820006520282D323020746F203230290A003A9A
:10083000200050726F6265205A204F66667365749F
:10084000003C3C3C2067636F64655F540A00203ABB
:100850002041465445520A00202063757272656E2D
:10086000745F706F736974696F6E3D00203A204247
:1008700045464F52450A00202063757272656E74BA
:100880005F706F736974696F6E3D003E3E3E206716
:10089000636F64655F542800696E206D6F76655FD5
:1008A000746F282920666565645F76616C756520C4
:1008B000666F722058593A004C656176696E672000
:1008C000473236004732362048656174696E6720CA
:1008D0004E6F7A7A6C652E00473236204865617417
:1008E000696E67204265642E00446F6E6520507209
:1008F000696D696E6700557365722D436F6E747212
:100900006F6C6C6564205072696D6500466978652E
:1009100064204C656E677468205072696D652E00A6
:100920004D6573682056616C69646174696F6E20EF
:1009300053746F707065642E002C2065793D00291A
:10094000202D3E202865783D002C2073793D002025
:10095000436F6E6E656374696E6720776974682093
:10096000766572746963616C206C696E65202873AA
:10097000783D002C2065793D0029202D3E202865FA
:10098000783D002C2073793D0020436F6E6E6563C7
:1009900074696E67207769746820686F72697A6F0E
:1009A0006E74616C206C696E65202873783D004C14
:1009B000656176696E6720473236003F5370656324
:1009C000696669656420582C5920636F6F72646989
:1009D0006E617465206F7574206F6620626F756E2E
:1009E00064732E0A003F2852296570656174207671
:1009F000616C7565206E6F7420706C6175736962CF
:100A00006C653B206D757374206265206174206C89
:100A10006561737420312E0A003F53706563696607
:100A2000696564206E6F7A7A6C652074656D706597
:100A3000726174757265206E6F7420706C6175736D
:100A400069626C652E0A003F53706563696669656B
:100A5000642066696C616D656E742073697A6520C7
:100A60006E6F7420706C61757369626C652E0A001C
:100A70003F537065636966696564207072696D656E
:100A8000206C656E677468206E6F7420706C617581
:100A90007369626C652E0A003F537065636966690D
:100AA0006564206E6F7A7A6C652073697A65206E52
:100AB0006F7420706C61757369626C652E0A003FFB
:100AC0005370656369666965642052657472616319
:100AD00074696F6E204D756C7469706C69657220F5
:100AE0006E6F7420706C61757369626C652E0A009C
:100AF0003F52657472616374696F6E204D756C74DA
:100B000069706C696572206D7573742062652073FD
:100B100070656369666965642E0A003F537065639A
:100B20006966696564206C617965722068656967CA
:100B30006874206E6F7420706C61757369626C6587
:100B40002E0A003F537065636966696564206265BB
:100B5000642074656D7065726174757265206E6F66
:100B60007420706C61757369626C65202834302D57
:100B700031343043292E0A0047323620636F6D6DC1
:100B8000616E6420737461727465642E20576169AC
:100B900074696E6720666F7220686561746572287B
:100BA00073292E0A00203A203C3C3C20646F5F7081
:100BB000726F62655F6D6F76650A002020637572E3
:100BC00072656E745F706F736974696F6E3D00203B
:100BD0003A203E3E3E20646F5F70726F62655F6DCB
:100BE0006F76650A00202063757272656E745F709F
:100BF0006F736974696F6E3D0072657365745F62CF
:100C000065645F6C6576656C0A002028646F6E65AC
:100C1000290A004578747261706F6C617465205B9D
:100C20000042696C696E656172204C6576656C691D
:100C30006E6720477269643A0A00486F6D696E6793
:100C4000206661696C6564003C3C3C20646F5F68B1
:100C50006F6D696E675F6D6F766528005B00290AAE
:100C6000002C20002C20003E3E3E20646F5F686F09
:100C70006D696E675F6D6F766528002028004142C0
:100C80004C2041646A7573746D656E74205A00203F
:100C9000480020570020590042696C696E656172F6
:100CA00020477269642058005A20466164653A20E2
:100CB000002028656E61626C6564290A0020286442
:100CC000697361626C6564290A0042494C494E456A
:100CD0004152004175746F20426564204C65766511
:100CE0006C696E673A2000204E6F7A7A6C65290A2B
:100CF0000020262041626F76650020262053616D1A
:100D000065205A2061730020262042656C6F7700B1
:100D10002D43656E7465720020284C656674002052
:100D20005A3A0020593A0050726F6265204F666649
:100D300073657420583A004649585F4D4F554E54DC
:100D400045445F50524F42450A0050726F62653A07
:100D5000200043617274657369616E0A004D6163BE
:100D600068696E6520547970653A20003C3C3C20EF
:100D70004732390A0020636F7272656374656420BC
:100D80005A3A0047323920756E636F727265637428
:100D90006564205A3A00203A203E2070726F6269E2
:100DA0006E6720636F6D706C6574650A0020206348
:100DB000757272656E745F706F736974696F6E3D82
:100DC00000202844525952554E29004732392041BB
:100DD00075746F20426564204C6576656C696E673A
:100DE000003F20284C2C522C462C4229206F757431
:100DF000206F6620626F756E64732E0A003F28565E
:100E0000296572626F7365206C6576656C20697305
:100E100020696D706C61757369626C652028302D76
:100E200034292E0A00426164205A2076616C75656F
:100E30000A004E6F2062696C696E6561722067728C
:100E400069640A003C3C3C204732390A003E20419C
:100E500075746F2D6C6576656C206E6F74206E6591
:100E6000656465642C20736B69700A00203A203E2B
:100E70003E3E204732390A00202063757272656E4B
:100E8000745F706F736974696F6E3D00656E717524
:100E9000657565696E67202200000018C2000000B9
:100EA00000000000003C3C3C207365745F61786981
:100EB000735F69735F61745F686F6D652800203AC6
:100EC000200A00202063757272656E745F706F7304
:100ED0006974696F6E3D005D203D20003E20686FA3
:100EE0006D655F6F66667365745B003E207A707235
:100EF0006F62655F7A6F6666736574203D20002AB5
:100F00002A2A205A20484F4D45442057495448200A
:100F100050524F424520285A5F4D494E5F50524F24
:100F200042455F555345535F5A5F4D494E5F454EAD
:100F30004453544F505F50494E29202A2A2A0A0010
:100F40003E3E3E207365745F617869735F69735FCD
:100F500061745F686F6D65280000004842000048BA
:100F60004200008040000000005761726E696E67A9
:100F70003A20486F6D696E672042756D7020446934
:100F80007669736F72203C20310A0002020400006F
:100F9000A0400000A040000000400000A943000065
:100FA0006B43000096433C3C3C20686F6D65617864
:100FB00069732800203A203E204146544552207350
:100FC00065745F617869735F69735F61745F686F8F
:100FD0006D650A00202063757272656E745F706FB4
:100FE000736974696F6E3D00486F6D6520322053E0
:100FF0006C6F773A0A004D6F766520417761793AD8
:101000000A00486F6D65203120466173743A0A000A
:10101000FFFFFF3E3E3E20686F6D65617869732873
:10102000007C3C3E5E2B3D3F2F5B5D3B2C2A225CCF
:101030000024F4D43050C38E20C2A24017828B709B
:1010400011127A910D816CD90AA861E108C758661E
:1010500007615143061E4B5D05C145A7041A4111A6
:1010600004093D9803713931034036DB0265339141
:1010700002D4305402802E1D02632CEE01752AC565
:1010800001B028A001102781018F2564012B244B7A
:1010900001E0223401AC211F018D200D01801FFCD5
:1010A00000841EED00971DDF00B81CD200E61BC6B1
:1010B00000201BBC00641AB200B219A8000A19A0D3
:1010C000006A189900D117910040178B00B516845B
:1010D0000031167E00B31579003A157300C7146FFE
:1010E0000058146A00EE1366008813630025135E2F
:1010F00000C7125B006C12570015125400C1115149
:101100000070114F0021114B00D61049008D10477F
:10111000004610440002104200C00F4000800F3E05
:1011200000420F3C00060F3B00CB0E3800930E37F9
:10113000005C0E3500270E3400F30D3200C10D3176
:1011400000900D3000600D2E00320D2D00050D2C8D
:1011500000D90C2B00AE0C2900850C29005C0C2753
:1011600000350C27000E0C2600E80B2400C40B24CD
:1011700000A00B23007D0B23005A0B2100390B210B
:1011800000180B2000F80A1F00D90A1E00BB0A1E17
:10119000009D0A1D00800A1D00630A1C00470A1BEF
:1011A000002C0A1B00110A1A00F7091A00DD0919A0
:1011B00000C4091900AB091900920917007B09182E
:1011C00000630917004C091600360916002009169D
:1011D000000A091500F5081500E0081400CC0814F1
:1011E00000B8081400A4081400900813007D081229
:1011F000006B08130058081200460812003408114A
:1012000000230811001208110001081100F0071056
:1012100000E0071000D0071000C0071000B0070F53
:1012200000A107100091070E0083070F0074070F3D
:101230000065070E0057070E0049070E003B070D1B
:10124000002E070E0020070D0013070D0006070DE6
:1012500000F9060C00ED060D00E0060C00D4060CAB
:1012600000C8060C00BC060C00B0060C00A4060B5F
:101270000099060C008D060B0082060B0077060B0A
:10128000006C060B0061060A0057060B004C060AAC
:101290000042060A0038060A002E060A0024060A42
:1012A000001A060A001006090007060A00FD0509D3
:1012B00000F4050900EB050900E2050900D905095C
:1012C00000D0050900C7050900BE050900B50508DD
:1012D00000AD050800A50509009C05080094050857
:1012E000008C050800840508007C050800740508CA
:1012F000006C050700650508005D05070056050838
:10130000004E05070047050700400508003805079F
:1013100000310507002A050700230507001C050604
:1013200000160507000F050700080506000205075F
:1013300000FB040600F5040700EE040600E80406BE
:1013400000E2040700DB040600D5040600CF040613
:1013500000C9040600C3040600BD040600B7040665
:1013600000B1040500AC040600A6040600A00405B4
:10137000009B04060095040500900406008A0405FD
:101380000085040500800406007A04050075040544
:1013900000700405006B0405006604050061040587
:1013A000005C04050057040500520405004D0405C7
:1013B0000048040500430405003E0404003A040507
:1013C0000035040500300404002C04050027040443
:1013D00000230405001E0404001A0404001604057A
:1013E00000110404000D04040009040500040404B1
:1013F0000000040400FC030400F8030400F40304E8
:1014000000F0030400EC030400E8030400E4030418
:1014100000E0030400DC030400D8030400D4030448
:1014200000D0030400CC030400C8030300C5030379
:101430000024F404D9201BC40C5C0E9804C4095F7A
:101440000265077101F405F900FB04B30048048745
:1014500000C10369005803550003034500BE023A6A
:10146000008402310053022A0029022500040220D0
:1014700000E4011C00C8011900AF01170098011415
:101480000084011300710110006101100051010E70
:101490000043010D0036010B002B010B0020010B56
:1014A00000150109000C01090003010800FB0008F8
:1014B00000F3000800EB000700E4000600DE000671
:1014C00000D8000600D2000600CC000500C70005C9
:1014D00000C2000500BD000400B9000400B500040E
:1014E00000B1000400AD000400A9000400A5000341
:1014F00000A20003009F0004009B0003009800036B
:10150000009500020093000300900003008D00028C
:10151000008B0003008800020086000200840003A4
:1015200000810002007F0002007D0002007B0002BB
:1015300000790002007700010076000200740002CA
:101540000072000100710002006F0002006D0001D6
:10155000006C0002006A00010069000200670001DF
:1015600000660001006500010064000200620001E5
:101570000061000100600001005F0002005D0001E9
:10158000005C0001005B0001005A000100590001ED
:1015900000580001005700010056000100550001ED
:1015A00000540001005300000053000100520001EC
:1015B0000051000100500001004F0001004E0000EA
:1015C000004E0001004D0001004C0001004B0000E6
:1015D000004B0001004A00010049000100480000E2
:1015E00000480001004700010046000000460001DD
:1015F00000450000004500010044000100430000D8
:1016000000430001004200000042000100410000D0
:101610000041000100400001003F0000003F0001C8
:10162000003E0000003E0001003D0000003D0001C2
:10163000003C0000003C0000003C0001003B0000BA
:10164000003B0001003A0000003A000100390000B0
:1016500000390001003800000038000000380001A7
:10166000003700000037000100360000003600009F
:101670000036000100350000003500000035000193
:10168000003400000034000000340001003300008A
:10169000003300000033000100320000003200007F
:1016A0000032000100310000003100000031000173
:1016B000003000000030000000300001002F00006A
:1016C000002F0000002F0000002F0001002E00005E
:1016D000002E0000002E0001002D0000002D000053
:1016E000002D0000002D0001002C0000002C000047
:1016F000002C0000002C0001002B0000002B00003B
:10170000002B0000002B0001002A0000002A00002E
:10171000002A0000002A0001002900000029000022
:101720000029000000290000002900010028000015
:101730000028000000280000002800000028000108
:1017400000270000002700000027000000270000FD
:1017500000270001002600000026000000260000EF
:1017600000260000002600010025000000250000E2
:1017700000250000002500000025000000250001D4
:1017800000240000002400000024000000240000C9
:1017900000240001002300000023000000230000BB
:1017A00000230000002300000023000000230001AC
:1017B00000220000002200000022000000220000A1
:1017C0000022000000220001002100000021000092
:1017D0000021000000210000002100000021000085
:1017E0000021000100200000002000000020000077
:1017F0000020000000200000002000000020000069
:1018000000200001001F0000001F0000001F00005A
:10181000001F0000001F0000001F0000001F00014B
:10182000001E0000001E0000001E0000001E000040
:1018300000393000003325000087190000B00F0088
:1018400000DB080000BD040000740200003F01003E
:10185000004B64200023646566696E65204445463C
:1018600041554C545F004B69200023646566696EE6
:10187000652044454641554C545F004B7020002381
:10188000646566696E652044454641554C545F0069
:10189000504944204175746F74756E652066696E99
:1018A0006973686564212050757420746865206CC4
:1018B000617374204B702C204B6920616E64204B47
:1018C0006420636F6E7374616E74732066726F6DE3
:1018D0002062656C6F7720696E746F20436F6E664F
:1018E000696775726174696F6E2E680A00504944A9
:1018F000204175746F74756E65206661696C6564EE
:10190000212074696D656F75740A00453220544852
:1019100045524D414C2052554E4157415900453199
:1019200020544845524D414C2052554E4157415943
:101930000042454420544845524D414C2052554E9A
:101940004157415900546865726D616C2052756E43
:10195000617761790045322048656174696E67205E
:101960006661696C65640045312048656174696E23
:1019700067206661696C6564004265642068656122
:1019800074696E67206661696C656400486561749E
:10199000696E67206661696C656400504944204146
:1019A00075746F74756E65206661696C656421205D
:1019B00054656D706572617475726520746F6F2007
:1019C000686967680A00204B643A2000204B693A36
:1019D0002000204B703A20000A20436C6173736929
:1019E0006320504944200A002054753A2000204BBF
:1019F000753A2000206D61783A2000206D696E3ABA
:101A0000200020643A200020626961733A2000506F
:101A10004944204175746F74756E65206661696C08
:101A20006564212042616420657874727564657212
:101A3000206E756D6265720A0050494420417574CC
:101A40006F74756E652073746172740A004F6666F8
:101A50000A00466164652048656967687420004231
:101A60006564204C6576656C696E67200046616927
:101A70006C656420746F20656E61626C65204265E0
:101A800064204C6576656C696E670A004F66667304
:101A9000657473206170706C696564004572723A98
:101AA00020546F6F206661722100546F6F20666151
:101AB000722066726F6D207265666572656E636511
:101AC00020706F696E740A00496E736572742066C7
:101AD000696C616D656E7420616E642070726573EF
:101AE0007320627574746F6E0A0050726573732090
:101AF000627574746F6E20746F2068656174206EF7
:101B00006F7A7A6C650A00496E7365727420666933
:101B10006C616D656E7420616E64207072657373A4
:101B200020627574746F6E20286F72204D313038CA
:101B3000290A00496E76616C696420657874727553
:101B40006465720A00416374697665204578747231
:101B5000756465723A2000203A204D6F76652062E8
:101B600061636B0A00202064657374696E61746937
:101B70006F6E3D00207D0A002C20004F6666736565
:101B80007420546F6F6C205859206279207B20009C
:101B90004E6F206D6F7665206F6E20746F6F6C6373
:101BA00068616E67650A00526573656E643A20006D
:101BB0006F6B0020746F6F206C6F6E672065787498
:101BC000727573696F6E2070726576656E74656488
:101BD0000A0020636F6C6420657874727573696F96
:101BE0006E2070726576656E7465640A0062757346
:101BF000793A2070617573656420666F7220696E32
:101C00007075740A00627573793A20706175736536
:101C10006420666F7220757365720A00627573794D
:101C20003A2070726F63657373696E670A004B497F
:101C30004C4C45442E20004B494C4C20636175733D
:101C40006564206279204B494C4C20627574746F36
:101C50006E2F70696E0A004B494C4C45442E200093
:101C60004B494C4C20636175736564206279207424
:101C70006F6F206D75636820696E61637469766546
:101C80002074696D65202D2063757272656E7420F5
:101C9000636F6D6D616E643A2000506C65617365B1
:101CA000207265736574005052494E544552204865
:101CB000414C544544005072696E746572206861ED
:101CC0006C7465642E206B696C6C28292063616CD0
:101CD0006C6564210A002C20002C2000203A20731F
:101CE000796E635F706C616E5F706F736974696F3A
:101CF0006E0A00202063757272656E745F706F7378
:101D00006974696F6E3D004B494C4C45442E200070
:101D100053544F505045442E20005072696E7465E4
:101D2000722073746F707065642064756520746FC1
:101D3000206572726F72732E204669782074686510
:101D4000206572726F7220616E6420757365204D1C
:101D500039393920746F20726573746172742E2062
:101D60002854656D706572617475726520697320A1
:101D700072657365742E20536574206974206166E2
:101D80007465722072657374617274696E67290A72
:101D9000004E6F20436865636B73756D20776974BF
:101DA00068206C696E65206E756D6265722C204CC2
:101DB000617374204C696E653A20004E6F20436851
:101DC00065636B73756D2077697468206C696E65E7
:101DD000206E756D6265722C204C617374204C69A5
:101DE0006E653A2000636865636B73756D206D697D
:101DF000736D617463682C204C617374204C696E40
:101E0000653A20004C696E65204E756D62657220E2
:101E10006973206E6F74204C617374204C696E6519
:101E2000204E756D6265722B312C204C61737420CD
:101E30004C696E653A20004D313130004D33310030
:101E400053442072656164206572726F720A0044A7
:101E50006F6E65207072696E74696E672066696C5A
:101E6000650A0020496E76616C6964206578747239
:101E7000756465722000000018C2000000000000B8
:101E800000000000964300006B43000096430A20C8
:101E9000736F66745F656E6473746F705F6D617885
:101EA000203D20000A20736F66745F656E64737452
:101EB0006F705F6D696E203D20000A20706F73693E
:101EC00074696F6E5F7368696674203D20002061DD
:101ED0007869733A0A20686F6D655F6F666673652F
:101EE00074203D2000466F7220003C3C3C20646F13
:101EF0005F626C6F636B696E675F6D6F76655F7451
:101F00006F0A003E3E3E20646F5F626C6F636B69D8
:101F10006E675F6D6F76655F746F00203A20736542
:101F20007475705F666F725F656E6473746F705FF7
:101F30006F725F70726F62655F6D6F76650A002009
:101F40002063757272656E745F706F736974696F08
:101F50006E3D00203A20636C65616E5F75705F6155
:101F6000667465725F656E6473746F705F6F725FC5
:101F700070726F62655F6D6F76650A002020637511
:101F80007272656E745F706F736974696F6E3D0015
:101F9000646F5F70726F62655F726169736528005C
:101FA0006465706C6F793A2000203A207365745F25
:101FB00070726F62655F6465706C6F7965640A004A
:101FC000202063757272656E745F706F73697469D7
:101FD0006F6E3D0053746F72652073657474696E23
:101FE0006773004C6F61642073657474696E677306
:101FF0000050726F6265205A204F666673657400E8
:1020000050726F6265205A204F6666736574004691
:10201000616465204865696768740046616465208D
:10202000486569676874004661646520486569674A
:102030006874004F6666004F6E2000426564204C55
:102040006576656C696E67004C6576656C206265C7
:1020500064004732380A4732390047323900417547
:10206000746F20686F6D650047323800507265707C
:10207000617265004D343238005072656865617474
:1020800020504C4100436F6F6C646F776E0050724C
:10209000656865617420414253004368616E6765FD
:1020A0002066696C616D656E740044697361626C71
:1020B00065207374657070657273004D3834005319
:1020C000657420686F6D65206F6666736574730054
:1020D000426564204C6576656C696E670041757475
:1020E0006F20686F6D6500473238004D6F76652050
:1020F00061786973004D61696E004D6F7665205897
:10210000004D6F76652059004D6F7665205A004569
:10211000787472756465723200457874727564659E
:102120007231004D6F766520302E316D6D004D6F30
:10213000766520316D6D004D6F76652031306D6DA7
:10214000004D6F766520617869730045787472750B
:10215000646572004D6F7665205A004D6F7665207C
:1021600059004D6F76652058004578747275646526
:102170007232004578747275646572310045787406
:102180007275646572004D6F7665205A004D6F76EA
:10219000652059004D6F766520580050726570615A
:1021A00072650053746570732F6D6D004A65726BB4
:1021B00000416363656C65726174696F6E0056659A
:1021C0006C6F636974790050726F6265205A204F9A
:1021D00066667365740050726F6265205A204F66A0
:1021E0006673657400436F6E74726F6C004C6F6140
:1021F00064206D6D2032004C6F6164206D6D203263
:10220000004C6F6164206D6D2032004C6F61642062
:102210006D6D2031004C6F6164206D6D2031004C7C
:102220006F6164206D6D2031004C6F6164206D6DB5
:10223000004C6F6164206D6D004C6F6164206D6DAA
:1022400000556E6C6F6164206D6D203200556E6CB0
:102250006F6164206D6D203200556E6C6F6164207B
:102260006D6D203200556E6C6F6164206D6D203194
:1022700000556E6C6F6164206D6D203100556E6C81
:102280006F6164206D6D203100556E6C6F6164204C
:102290006D6D00556E6C6F6164206D6D00556E6CD8
:1022A0006F6164206D6D0046696C2E204469612E5B
:1022B00020320046696C2E204469612E203200468F
:1022C000696C2E204469612E20310046696C2E20F5
:1022D0004469612E20310046696C2E204469612ECC
:1022E0000046696C2E204469612E004F6666004FDF
:1022F0006E20004520696E206D6D3300436F6E7453
:10230000726F6C0043616E6E6F7420656E746572DF
:10231000207375626469723A2000022E2E004D61AE
:10232000696E004D37303220542564004D36303010
:1023300020423020542564004D373032203B256444
:10234000004D37303120542564004D363030204266
:1023500030205431004368616E67652066696C61A6
:102360006D656E74204532004D363030204230208D
:102370005430004368616E67652066696C616D6505
:102380006E74204531005072657061726500505264
:10239000494E542050415553454400554E4C4F41F1
:1023A000442046494C414D454E54004C4F41442039
:1023B00046494C414D454E54005075726765206D3D
:1023C0006F726500436F6E74696E75650052455398
:1023D000554D45204F5054494F4E533A004361727A
:1023E000642072656D6F7665640043617264206974
:1023F0006E7365727465640000060900FE07019241
:102400000321207FFF07FF07FF00000006000001F7
:102410000707060200808080808000800302020699
:102420000105A0A00507070600005050F850F8501D
:10243000500507070600002078A07028F020050747
:1024400007060000C0C810204098180507070600BE
:10245000006090A040A89068020303060104C040F9
:10246000800307070601002040808080402003078A
:102470000706010080402020204080050505060059
:102480000120A870A8200505050600012020F820DD
:10249000200203030602FFC040800501010600037D
:1024A000F8020202060200C0C00505050600010888
:1024B00010204080050707060000708888888888FB
:1024C0007003070706010040C040404040E0050798
:1024D00007060000708808708080F805070706006E
:1024E00000F81020100808F005070706000010305B
:1024F0005090F81010050707060000F880F0080853
:102500008870050707060000708080F088887005D5
:102510000707060000F808102020202005070706FE
:1025200000007088887088887005070706000070B2
:10253000888878080870020505060200C0C000C03F
:10254000C00206060602FFC0C000C04080040707A4
:102550000600001020408040201005030306000202
:10256000F800F80407070601008040201020408092
:1025700005070706000070880810200020050707DF
:1025800006000070880868A8A87005070706000004
:10259000708888F8888888050707060000F0888812
:1025A000F08888F005070706000070888080808822
:1025B00070050707060000F08888888888F00507FE
:1025C00007060000F88080F08080F8050707060005
:1025D00000F88080F0808080050707060000708882
:1025E00080B8888870050707060000888888F88802
:1025F000888801070706020080808080808080052F
:102600000707060000381010101090600507070635
:1026100000008890A0C0A0908805070706000080F1
:102620008080808080F805070706000088D8A88889
:102630008888880507070600008888C8A8988888C1
:1026400005070706000070888888888870050707D6
:10265000060000F08888F0808080050707060000EB
:1026600070888888A89068050707060000F08888A9
:10267000F0A09088050707060000788080700808A1
:10268000F0050707060000F820202020202005077D
:102690000706000088888888888870050707060074
:1026A00000888888888850200507070600008888E9
:1026B000888888A8500507070600008888502050A1
:1026C0008888050707060000888888502020200594
:1026D0000707060000F80810204080F803070706E7
:1026E0000100E08080808080E00505050600018013
:1026F00040201008030707060100E02020202020CA
:10270000E0050303060004205088050101060000CF
:10271000F802020206020580400505050600007069
:10272000087888780507070600008080B0C8888888
:10273000F005050506000070808088700507070613
:10274000000008086898888878050505060000706C
:1027500088F880700507070600003048E0404040D8
:10276000400506060600FF70888878087005070790
:102770000600008080B0C88888880107070602002C
:10278000800080808080800308080601FF200020F0
:10279000202020A040040707060000808090A0C0F1
:1027A000A090030707060100C04040404040E005FC
:1027B0000505060000D0A8A8A8A805050506000084
:1027C000B0C888888805050506000070888888706C
:1027D0000506060600FFF08888F0808005060606DC
:1027E00000FF788888780808050505060000B0C84D
:1027F00080808005050506000070807008F00407E1
:10280000070600004040E040404030050505060056
:102810000088888898680505050600008888885023
:10282000200505050600008888A8A85005050506AE
:10283000000088502050880506060600FF8888881A
:10284000780870050505060000F8102040F8030719
:102850000706010020404080404020010707060293
:102860000080808080808080030707060100804010
:1028700040204040800502020600026890000000EF
:1028800006000020746F6F206C6F6E67206578748F
:10289000727573696F6E2070726576656E746564AB
:1028A0000A0020636F6C6420657874727573696FB9
:1028B0006E2070726576656E7465640A00486F7488
:1028C000656E6420746F6F20636F6C640A00203A39
:1028D000203C3C3C2072756E5F7A5F70726F62655F
:1028E0000A00202063757272656E745F706F736981
:1028F00074696F6E3D002044697363726570616E28
:1029000063793A00326E642050726F6265205A3AE1
:1029100000203A203C3C3C2072756E5F7A5F7072FA
:102920006F62650A00202063757272656E745F7055
:102930006F736974696F6E3D00534C4F572050722E
:102940006F6265206661696C210A003173742050E2
:10295000726F6265205A3A00203A203C3C3C20725B
:10296000756E5F7A5F70726F62650A002020637512
:102970007272656E745F706F736974696F6E3D001B
:10298000464153542050726F6265206661696C2124
:102990000A00203A203E3E3E2072756E5F7A5F70DC
:1029A000726F62650A00202063757272656E745FD3
:1029B000706F736974696F6E3D003C3C3C207072AF
:1029C0006F62655F70740A0050726F62696E672093
:1029D0006661696C65640A0050726F62696E672097
:1029E0006661696C656400205A3A200020593A20DB
:1029F0000042656420583A2000203A200A00202036
:102A000063757272656E745F706F736974696F6EEF
:102A10003D005F72656C6174697665290A002C203F
:102A2000002C20002C20002C20003E3E3E20707206
:102A30006F62655F70742800486F6D65202573258F
:102A400073257320666972737400206669727374EB
:102A50000A005A0059005800486F6D652000534421
:102A60002063617264206F6B0A006F70656E526F35
:102A70006F74206661696C65640A00766F6C756DB1
:102A8000652E696E6974206661696C65640A00531D
:102A90004420696E6974206661696C0A0025753A84
:102AA0002530327500253032753A253032750025D3
:102AB000756420253032753A25303275002020208B
:102AC000202020005A005900202020200058000912
:102AD00020000000000000000000000000003FFF98
:102AE000F00000000000000000000000003800704E
:102AF00000000000000000000000000030FC30007A
:102B0000000000000000000000000020FC10000099
:102B1000000000000000000000002078100000000D
:102B20000000000000000000002030100000000045
:102B300000000000000000002C00D03FC0001FE09B
:102B4000000000002082002E31D07DE0003CF0002B
:102B50000000001041002F7BD079E0003B700000A6
:102B600000001041002F7BD075E0003F7000000096
:102B7000002082002E31D03DC0001EE00000000089
:102B80004104002C00D03DC0001DE0000000008288
:102B900008002030107DE0003BF0000000008208BB
:102BA000002078107DE00038700000000041040033
:102BB00020FC107FE0003FF0000000002082003089
:102BC000FC301F80000FC000000000000000380033
:102BD000700F0000078000000000FFFFC03FFFF003
:102BE000060000030000000000FFFFC0000000001E
:102BF00000000000000000000000003FFFF00000A7
:102C0000000000000000000000003800700000001C
:102C100000000000000000000031863000000000CD
:102C200000000000000000002387100000000000EA
:102C30000000000000000027879000000000000056
:102C40000000000000002F87D000000000000000FE
:102C500000000000002F03D03FC0001FE000000074
:102C6000002082002030107DE0003CF000000000D9
:102C700010410020781079E0003B70000000001047
:102C8000410020781075E0003F70000000002082B5
:102C9000002030103DC0001EE00000000041040094
:102CA0002F03D03DC0001DE0000000008208002F6F
:102CB00087D07DE0003BF0000000008208002787FD
:102CC000907DE00038700000000041040023871070
:102CD0007FE0003FF0000000002082003186301FBE
:102CE00080000FC0000000000000003800700F00DE
:102CF00000078000000000FFFFC03FFFF00600005B
:102D0000030000000000FFFFC000000042696742AE
:102D10006F78204475616C2052656164792E005093
:102D200072696E74696E672E2E2E005072696E7411
:102D300020706175736564004D313235004D323459
:102D4000005072696E742061626F72746564005025
:102D500072696E742066726F6D2053440053746FF5
:102D600070207072696E74004E6F2053442063614E
:102D7000726400526573756D65207072696E7400BF
:102D80005061757365207072696E7400436F6E7464
:102D9000726F6C00507265706172650054756E657B
:102DA00000496E666F2073637265656E0020204E69
:102DB0006F7A7A6C653A20006368616E6765006FB0
:102DC00066207468652066696C616D656E74005775
:102DD00061697420666F72207374617274002020C0
:102DE0004E6F7A7A6C653A2000200066696C616DDE
:102DF000656E7420756E6C6F616400576169742034
:102E0000666F720020204E6F7A7A6C653A2000203F
:102E100000506C6561736520776169742E2E2E00F9
:102E200048656174696E67206E6F7A7A6C65002000
:102E3000204E6F7A7A6C653A2000200068656174D4
:102E4000206E6F7A7A6C652E005072657373206203
:102E50007574746F6E20746F0020204E6F7A7A6CD8
:102E6000653A2000746F20636F6E74696E75652E0D
:102E70002E2E00616E64207072657373206275740B
:102E8000746F6E00496E736572742066696C616D53
:102E9000656E740020204E6F7A7A6C653A200020AF
:102EA0000066696C616D656E74206C6F61640057BB
:102EB00061697420666F720020204E6F7A7A6C65AB
:102EC0003A2000200066696C616D656E7420707533
:102ED000726765005761697420666F7200746F20B5
:102EE000726573756D65005761697420666F722035
:102EF0007072696E740057726974696E6720746FBE
:102F00002066696C653A20006F70656E20666169A5
:102F10006C65642C2046696C653A20006F70656EA4
:102F2000206661696C65642C2046696C653A2000F6
:102F300046696C652073656C65637465640A00207E
:102F400053697A653A200046696C65206F70656E3A
:102F500065643A20002066696C653A2000646F69F8
:102F60006E67006672657368004E6F772000454E8D
:102F70004420535542524F5554494E450A00222091
:102F8000706F73002220706172656E743A22005374
:102F90005542524F5554494E452043414C4C2074A4
:102FA00061726765743A22004B494C4C45442E20AF
:102FB00000747279696E6720746F2063616C6C2095
:102FC0007375622D67636F64652066696C65732035
:102FD0007769746820746F6F206D616E79206C65FD
:102FE00076656C732E204D4158206C6576656C209B
:102FF00069733A004572726F723A006F70656E20A5
:103000006661696C65642C2046696C653A200043F2
:10301000616E6E6F74206F70656E20737562646987
:103020007220006563686F3A00454550524F4D204D
:103030006461746173697A65206572726F722E0AB9
:1030400000290A002062797465733B206372632053
:103050000053657474696E67732053746F7265648E
:10306000202800290A002062797465733B2063726E
:103070006320002073746F726564207365747469D3
:103080006E677320726574726965766564202800C6
:10309000202863616C63756C6174656429210A0082
:1030A00020213D2000454550524F4D2043524320A2
:1030B0006D69736D61746368202D202873746F725D
:1030C00065642920002053697A653A2000496E64BE
:1030D00065783A2000204D61726C696E3D56353539
:1030E000290A0028454550524F4D3D004545505254
:1030F0004F4D2076657273696F6E206D69736D61D7
:1031000074636820004D3630303A20546F6F20636E
:103110006F6C6400486F74656E6420746F6F206319
:103120006F6C640A0046696C652064656C65746543
:10313000643A0044656C6574696F6E206661696C01
:1031400065642C2046696C653A200050726F746586
:10315000637465642050696E0A005374616E646123
:10316000726420446576696174696F6E3A2000204C
:1031700052616E67653A2000204D61783A20002048
:103180004D696E3A20004D65616E3A200046696EC9
:103190006973686564210A002072616E67653A2070
:1031A00000206D61783A2000206D696E3A20002081
:1031B0007369676D613A2000206D65616E3A200089
:1031C0003A207A3A2000206F662000205A002059C9
:1031D00000205800476F696E6720746F3A00436C97
:1031E0006F636B776973650A00436F756E74657200
:1031F0002D0020446972656374696F6E3A20002067
:103200002020616E676C653A2000537461727469A6
:103210006E67207261646975733A2000506F73693C
:1032200074696F6E696E67207468652070726F6272
:10323000652E2E2E0A003F4E756D626572206F66F8
:10324000206C65677320696E206D6F76656D656EA5
:1032500074206E6F7420706C61757369626C652088
:1032600028302D3135292E0A003F2028582C592985
:10327000206F7574206F6620626F756E64732E0AFE
:10328000003F53616D706C652073697A65206E6FC5
:103290007420706C61757369626C652028342D35FB
:1032A00030292E0A004D3438205A2D50726F626535
:1032B000205265706561746162696C69747920542B
:1032C0006573740A003F2856296572626F73652022
:1032D0006C6576656C20697320696D706C617573BF
:1032E00069626C652028302D34292E0A00000021E7
:1032F00000240027002A002D0030003300010100C7
:1033000000040107010A0100002200250028002B0B
:10331000002E003100340002010000050108010BFD
:1033200001000020002300260029002C002F00327D
:10333000000001000003010601090105050505075C
:103340000508080808020202020A0A080804040420
:10335000040101010101010101030303030303034C
:1033600003040707070C0C0C0C0C0C0C0C020202DB
:103370000206060606060606060B0B0B0B0B0B0BCE
:103380000B0102102020080810204010204080026D
:10339000010201080402010102040810204080809B
:1033A000402010080402018004020180402010081F
:1033B00004020108040201010204081020408001F7
:1033C0000204081020408000000A0B02090C0D0EB8
:1033D00008070304010000000000000000000000D6
:1033E00000000000000000000000000000000000DD
:1033F000000000121110000000000000000000009A
:1034000000000000000000000000000000436861B0
:103410006E67652066696C616D656E7400507265DB
:10342000686561742041425300507265686561743B
:1034300020504C41004368616E67652066696C618D
:103440006D656E74004D3234004D323320257300AB
:10345000556E6B6E6F776E20636F6D6D616E643A43
:10346000202200496E736572742066696C616D6517
:103470006E7420616E64207072657373206275745F
:10348000746F6E20286F72204D313038290A005633
:1034900054726176206D696E005654726176206DAB
:1034A000696E005654726176206D696E00566D69C2
:1034B0006E00566D696E00566D696E00566D6178CE
:1034C000204500566D6178204500566D6178204595
:1034D00000566D6178205A00566D6178205A00566A
:1034E0006D6178205A00566D6178205900566D61E3
:1034F00078205900566D6178205900566D6178200A
:103500005800566D6178205800566D61782058003B
:103510004D6F74696F6E00416D6178204500416D9B
:103520006178204500416D6178205A00416D6178D5
:10353000205A00416D6178205900416D6178205911
:1035400000416D6178205800416D6178205800413C
:103550002D74726176656C00412D74726176656CB4
:1035600000412D7265747261637400412D7265743F
:103570007261637400416363656C00416363656CF1
:10358000004D6F74696F6E0056652D6A65726B0031
:1035900056652D6A65726B0056652D6A65726B0003
:1035A000567A2D6A65726B00567A2D6A65726B00C9
:1035B00056792D6A65726B0056792D6A65726B00BB
:1035C00056792D6A65726B0056782D6A65726B00AC
:1035D00056782D6A65726B0056782D6A65726B009D
:1035E0004D6F74696F6E004573746570732F6D6DE8
:1035F000004573746570732F6D6D005A7374657038
:10360000732F6D6D005A73746570732F6D6D005953
:1036100073746570732F6D6D005973746570732FBB
:103620006D6D005873746570732F6D6D00587374F1
:103630006570732F6D6D004D6F74696F6E001FFFA5
:10364000FFFFFFFFFF600000000001FF40000000DF
:103650000000FF8000000000007F83CF00000C30DE
:103660003F87FF80000C301F867980000C000F8C94
:1036700030C7838C30E78C30CFC7CC31F38C30DC53
:10368000ECEC33B98C30D86C6C33198C30D06C0CBA
:1036900033198C30D86C0C33198C30DC6C0E3B1920
:1036A0008C30CF7C079F198C30C77C038F1940006A
:1036B0000000000002600000000000061FFFFFFF86
:1036C000FFFFF82020506C616E6E65724275666671
:1036D000657242797465733A2000204672656520F0
:1036E0004D656D6F72793A2000436F6D70696C653E
:1036F000643A204A616E20333020323031390A007A
:10370000207C20417574686F723A206D61726B6F16
:10371000617572656C696A650A00323031392D3025
:10372000312D313100204C61737420557064617407
:1037300065643A2000312E312E392D4242440A0070
:103740004D61726C696E0020536F667477617265AB
:103750002052657365740A00205761746368646F52
:10376000672052657365740A002042726F776E207D
:103770006F75742052657365740A0020457874650E
:10378000726E616C2052657365740A00506F7765C4
:103790007255700A0073746172740A006175746FF7
:1037A00025692E67006572726F722077726974697D
:1037B0006E6720746F2066696C650A00456E6473DD
:1037C000746F707320256320256320256320256393
:1037D00000205A3A0020593A0020583A00656E6499
:1037E00073746F7073206869743A2000446F6E655B
:1037F00020736176696E672066696C652E0A004DDC
:10380000323900496E697469616C697A6520454591
:1038100050524F4D00436F6E74726F6C005265735F
:10382000746F7265206661696C73616665004C6FC8
:1038300061642073657474696E677300496E69749E
:1038400069616C697A6520454550524F4D0053744B
:103850006F72652073657474696E67730046696C76
:10386000616D656E74004D6F74696F6E0054656DA7
:103870007065726174757265004D61696E004D33DB
:103880003033205531204525692053256900507279
:1038900065686561742041425320636F6E66005015
:1038A00072656865617420504C4120636F6E6600DC
:1038B000504944204175746F74756E6500504944D9
:1038C000204175746F74756E6500504944204175D0
:1038D000746F74756E65005049442D43005049441F
:1038E0002D43005049442D43005049442D4400507D
:1038F00049442D44005049442D49005049442D4924
:10390000005049442D50005049442D5000200820BB
:10391000466163740020082046616374002008201B
:103920004D6178002008204D6178002008204D610D
:1039300078002008204D696E002008204D696E0037
:103940002008204D696E004F6666004F6E200041D2
:1039500075746F74656D700046616E207370656577
:10396000640046616E2073706565640046616E2078
:103970007370656564004265640042656400426579
:1039800064004E6F7A7A6C652032004E6F7A7A6CE2
:10399000652032004E6F7A7A6C652032004E6F7A65
:1039A0007A6C652031004E6F7A7A6C652031004E5A
:1039B0006F7A7A6C65203100436F6E74726F6C00A1
:1039C00053746F72652073657474696E6773004217
:1039D00065640042656400426564004E6F7A7A6CEB
:1039E00065004E6F7A7A6C65004E6F7A7A6C65006E
:1039F00046616E2073706565640046616E20737069
:103A00006565640046616E20737065656400546589
:103A10006D7065726174757265004261627973746C
:103A20006570205A004368616E67652066696C6145
:103A30006D656E74004261627973746570205A001E
:103A4000466C6F77203200466C6F77203200466CF0
:103A50006F77203200466C6F77203100466C6F77AD
:103A6000203100466C6F77203100466C6F7700463E
:103A70006C6F7700466C6F770046616E20737065DF
:103A800065640046616E2073706565640046616E12
:103A9000207370656564004265640042656400429D
:103AA0006564004E6F7A7A6C652032004E6F7A7AC8
:103AB0006C652032004E6F7A7A6C652032004E6F52
:103AC0007A7A6C652031004E6F7A7A6C652031000D
:103AD0004E6F7A7A6C6520310046616465204865D6
:103AE0006967687400466164652048656967687441
:103AF00000466164652048656967687400537065B5
:103B00006564005370656564005370656564004DBD
:103B100061696E005072656865617420504C412087
:103B2000416C6C005072656865617420504C412096
:103B3000456E64204532005072656865617420509E
:103B40004C412032005072656865617420504C41D0
:103B500020456E64204531005072656865617420AF
:103B6000504C412031005072656865617420504CA2
:103B70004120426564005072657061726500507248
:103B800065686561742041425320416C6C0050723D
:103B9000656865617420414253204265640050723B
:103BA00065686561742041425320456E642045324A
:103BB00000507265686561742041425320320050A4
:103BC0007265686561742041425320456E642045EA
:103BD00031005072656865617420414253203100A4
:103BE000507265706172650000000000300E0100C7
:103BF000C00E0A00500F1400D00F1E0060102800E5
:103C0000E010320070113C00F011460070125000BC
:103C100000135A008013640000146E0090147800A2
:103C20001015820090158C00101696009016A000BA
:103C30001017AA009017B4001018BE009018C80002
:103C40001019D2009019DC00101AE600801AF0005A
:103C5000001BFA00801B0401F01B0E01701C1801F0
:103C6000F01C2201601D2C01E01D3601501E400198
:103C7000D01E4A01401F5401B01F5E013020680170
:103C8000A020720110217C01902186010022900168
:103C90006026F401902A5802802EBC025032200384
:103CA000E03584035039E803803C4C041000C9021D
:103CB00010012C014001220170011801B0010E0118
:103CC000F00104015002FA00B002F0003003E600F7
:103CD000D003DC009004D2007005C800A006BE002E
:103CE0000008B400B009AA00D00BA000600E960036
:103CF00060118C000015820020197800C01D6E0034
:103D0000A0226400B0275A00902C500000314600D9
:103D1000E0343C0010383200903A2800603C1E002D
:103D2000A03D1400803E0A00203F00004532205490
:103D30004845524D414C2052554E4157415900453E
:103D40003120544845524D414C2052554E41574127
:103D5000590042454420544845524D414C2052554B
:103D60004E4157415900546865726D616C2052751F
:103D70006E61776179004532204572723A204D417B
:103D80005854454D50004531204572723A204D41FE
:103D90005854454D50004572723A204D4158544593
:103DA0004D5020424544004D415854454D502074DB
:103DB0007269676765726564004532204572723AC0
:103DC000204D494E54454D50004531204572723AC0
:103DD000204D494E54454D50004572723A204D4990
:103DE0004E54454D5020424544004D494E54454D9A
:103DF0005020747269676765726564004D383420BD
:103E0000582059205A204500202F002040002042F1
:103E1000403A0020403A0048617264636F64656410
:103E20002044656661756C742053657474696E67AF
:103E300073204C6F616465640A00E8030000E803C6
:103E4000000064000000881300000000164300001A
:103E500016430000C0400000C8410000204300009D
:103E600034430000C8430000554420204D36303311
:103E700020003A0A0020286D6D2900205500543199
:103E8000204C002055005430204C0046696C616D78
:103E9000656E74206C6F61642F756E6C6F61642049
:103EA0006C656E677468733A0A0020204D383531AE
:103EB000205A005A2D50726F6265204F66667365F6
:103EC000740020440020490020204D33303420501D
:103ED00000204C0020430020440020490020204DB9
:103EE000333031205000204C00204300204400207B
:103EF000490020500020204D3330312045005049EA
:103F0000442073657474696E67733A0A0020460032
:103F100020420020480020204D3134352053004DF0
:103F20006174657269616C20686561747570207078
:103F30006172616D65746572733A0A00205A0020DF
:103F40004A0020204732392057204900205A0020BB
:103F5000204D3432302053004175746F2042656427
:103F6000204C6576656C696E673A0A00205900201E
:103F7000580020204D323138205400486F74656E4F
:103F800064206F6666736574733A0A00205A0020D5
:103F9000590020204D323036205800486F6D652082
:103FA0006F66667365743A0A00204500205A002047
:103FB000590020580020540020530020204D32305A
:103FC0003520510020453C6D61785F655F6A657200
:103FD0006B3E0020583C6D61785F785F6A65726B5C
:103FE0003E20593C6D61785F795F6A65726B3E2057
:103FF0005A3C6D61785F7A5F6A65726B3E0041641E
:1040000076616E6365643A20513C6D696E5F7365DD
:10401000676D656E745F74696D655F75733E20537F
:104020003C6D696E5F66656564726174653E2054BF
:104030003C6D696E5F74726176656C5F6665656420
:10404000726174653E0020540020520020204D32E1
:104050003034205000416363656C65726174696F30
:104060006E2028756E6974732F7332293A20503C84
:104070007072696E745F616363656C3E20523C725E
:104080006574726163745F616363656C3E20543C68
:1040900074726176656C5F616363656C3E0A0020D3
:1040A0004500205A0020590020204D323031205840
:1040B000004D6178696D756D20416363656C657253
:1040C0006174696F6E2028756E6974732F7332295D
:1040D0003A0A00204500205A0020590020204D3285
:1040E00030332058004D6178696D756D20666565C7
:1040F0006472617465732028756E6974732F7329F7
:104100003A0A00204500205A0020590020204D394D
:104110003220580053746570732070657220756E7C
:1041200069743A0A0020204D3230302044300A00B1
:1041300020204D32303020543120440020204D3298
:1041400030302044002044697361626C65640A0069
:1041500046696C616D656E742073657474696E6711
:10416000733A0020204D3134392043203B20556ED6
:1041700069747320696E2043656C736975730A00F6
:104180002020473231202020203B0000060900FE7D
:10419000000000000001090008FE000005080806F4
:1041A000000040F0C88888987810050808060000CC
:1041B000C0F88888888888F8050505060001203041
:1041C000F830200508080600002070F82020202084
:1041D000E00509090600FF2070A8A8B888887020AB
:1041E0000509090600FFE080C0B0A828302828058E
:1041F00009090600FFF8A88888888888A8F8050AB1
:104200000A0600FE205050505088A8A8887003036A
:104210000306000340A04020573A0045256920438B
:104220006F6F6C696E672E2E2E00452569204865DC
:104230006174696E672E2E2E0020573A0042656425
:1042400020636F6F6C696E672E2E2E0042656420AE
:1042500068656174696E672E2E2E00205A3A002020
:10426000593A0020436F756E7420583A0020453A41
:1042700000205A3A0020593A00583A003A00436167
:10428000703A005741524E494E4721204C6F7720DB
:104290005A204A65726B206D6179206C65616420DB
:1042A000746F20756E77616E7465642070617573CC
:1042B00065732E0A00205A00205900580020204D16
:1042C00061783A2000205A00205900580020204DE3
:1042D000696E3A20004F6E20004F666600536F668D
:1042E0007420656E6473746F70733A200020633AB3
:1042F0000020643A0020693A0020703A00496E7646
:10430000616C69642065787472756465720A00FF77
:10431000FDFCFAF8F6F4F2F0EEECEAE9E7E5E3E1A9
:10432000E0DEDCDAD9D7D5D4D2D0CFCDCBCAC8C75E
:10433000C5C3C2C0BFBDBCBAB9B7B6B4B3B2B0AFE3
:10434000ADACAAA9A8A6A5A4A2A1A09E9D9C9A993D
:10435000989795949392908F8E8D8B8A8988878673
:1043600084838281807F7E7D7B7A7978777675748D
:10437000737271706F6E6D6C6B6A69686766656485
:10438000636261605F5E5D5C5B5A59585857565571
:104390005453525150504F4E4D4C4B4A4A49484746
:1043A0004646454443424241403F3E3E3D3C3B3B06
:1043B0003A39383837363535343332323130302FB8
:1043C0002E2E2D2C2B2B2A2929282727262525245C
:1043D000232322212120201F1E1E1D1C1C1B1B1AF3
:1043E000191918181716161515141313121211117E
:1043F000100F0F0E0E0D0D0C0C0B0A0A0909080800
:104400000707060605050404030302020100004530
:1044100072726F722077726974696E6720746F2090
:10442000454550524F4D210A000808FFFFFFFF008D
:1044300000020202026265640A002C207379737420
:10444000656D2073746F70706564212048656174B8
:1044500065725F49443A2000426564206865617472
:10446000696E67206661696C65640048656174699E
:104470006E67206661696C6564004531204865613E
:1044800074696E67206661696C6564004532204816
:10449000656174696E67206661696C656400486572
:1044A0006174696E67206661696C65640054524985
:1044B000474745524544006F70656E003A20007AC8
:1044C0005F6D696E00795F6D696E00785F6D696E12
:1044D000005265706F7274696E6720656E647374E4
:1044E0006F70207374617475730A0000000001001E
:1044F00000000100008000555555000000400033C9
:10450000333300AAAA2A004992240000002000C7E1
:10451000711C0099991900D1451700555515003B9C
:10452000B113002449120011111100000010000FF6
:104530000F0F00E3380E0043790D00CCCC0C00C304
:10454000300C00E8A20B0064210B00AAAA0A00703C
:104550003D0A009DD80900427B090092240900DC35
:10456000D30800888808001042080000000800F006
:10457000C107008787070075500700711C07003EC0
:10458000EB0600A1BC060069900600666606007096
:104590003E06006118060017F4050074D105005BA3
:1045A000B00500B29005006272050055550500780F
:1045B000390500B81E0500050505004EEC0400870E
:1045C000D40400A1BD040090A7040049920400C1D6
:1045D0007D0400EE690400C7560400444404005CF6
:1045E0003204000821040041100400000004003FD0
:1045F000F00300F8E0030026D20300C3C30300CC9D
:10460000B503003AA803000A9B0300388E0300C0DC
:104610008103009F750300D0690300505E03001DF5
:1046200053030034480300913D0300333303001665
:10463000290300381F030097150300300C03000303
:104640000303000BFA020049F10200BAE802005C21
:10465000E002002DD802002DD0020059C80200B09F
:10466000C0020031B90200DAB10200AAAA0200A019
:10467000A30200BC9C0200FA9502005C8F0200DFDE
:1046800088020082820200457C0200277602002711
:10469000700200436A02007C640200D05E02003FA8
:1046A000590200C8530200000801160111241FBE60
:1046B000CFEFD1E2DEBFCDBF00E00CBF13E0A0E042
:1046C000B2E0EEE1FAEA02E00BBF02C007900D9201
:1046D000AE3AB107D9F727E1AEEAB3E001C01D92C7
:1046E000A53CB207E1F713E2C5E5D3E200E006C05E
:1046F00021970109802FFE010F946C54C435D10716
:1047000080E00807A9F70F9464420D94FE540C94BE
:1047100000002F923F924F925F926F927F928F9202
:104720009F92AF92BF92CF92DF92EF92FF920F9340
:104730001F93CF93DF93CDB7DEB7C354D1090FB624
:10474000F894DEBF0FBECDBF21E02093710C8091A5
:10475000BE178D3409F4B4C4843511F40C94E135DA
:10476000873411F00C943A368091BC179091BD17A4
:104770008B31910509F40CC2A4F48430910534F412
:1047800082309105A4F597FF2BC096C48430910523
:1047900009F4BFC14A9709F08FC40E94A53C0C944C
:1047A0003C368A32910509F447C354F48D319105A2
:1047B00009F466C20CF41CC24E9709F465C27CC4AD
:1047C0008B35910509F4F6C38C35910509F4F6C3D0
:1047D0008A35910509F070C41092B3030C943C36ED
:1047E0008091760281110C9441360C943C362091D4
:1047F0007602222311F40C943C3611E0029709F062
:1048000010E00E94584919821A821B821C821D8264
:104810001E821F82188682E50E943E3B882309F48F
:1048200028C10E94BE3A4B015C0120E030E0A901A2
:104830000F94314D882309F432C1809198069091EC
:104840009906A0919A06B0919B0688A799A7AAA756
:10485000BBA780919C0690919D06A0919E06B09169
:104860009F068CA79DA7AEA7BFA78091AC0690918D
:10487000AD06A091AE06B091AF0688AB99ABAAABDE
:10488000BBAB8091B0069091B106A091B206B091F9
:10489000B3068CAB9DABAEABBFAB28A939A94AA977
:1048A0005BA968A579A58AA59BA50F94314D8111B7
:1048B0000DC02CA93DA94EA95FA96CA57DA58EA50B
:1048C0009FA50F94314D882309F4E9C020E030E022
:1048D000A901C501B4010F94314D881F8827881F95
:1048E000181729F080E090E0A0E8BFEB04C080E05A
:1048F00090E0A0E8BFE38CAF9DAFAEAFBFAF28A5FF
:1049000039A54AA55BA568A979A98AA99BA90F948D
:104910007C5168AF79AF8AAF9BAF2CA53DA54EA562
:104920005FA56CA97DA98EA99FA90F947C516B01ED
:104930007C0128AD39AD4AAD5BADCA01B9010F9418
:10494000964D2B013C01A7019601C701B6010F94BA
:10495000964D9B01AC01C301B2010F947D510F94A0
:10496000E8532B013C0120E030E040E05FE30F948E
:10497000964D24966CAF7DAF8EAF9FAF2497A50167
:104980009401C501B4010F94964D4B015C0124962E
:104990002CAD3DAD4EAD5FAD2497CA01B9010F946A
:1049A000964D9B01AC01C501B4010F947C510F944D
:1049B000E8532CAD3DAD4EAD5FAD0F94964D4B0120
:1049C0005C01C701B6019058A30192010F9459529E
:1049D000A50194010F94964D6B017C0128A939A97A
:1049E0004AA95BA968A579A58AA59BA50F947D51C5
:1049F00020E030E040E05FE30F94964D9B01AC0176
:104A0000C701B6010F947D5128A539A54AA55BA51C
:104A10000F947C5169837A838B839C832CA93DA955
:104A20004EA95FA96CA57DA58EA59FA50F947D516C
:104A300020E030E040E05FE30F94964D6B017C0195
:104A4000A301920168AD79AD8AAD9BAD0F94595227
:104A5000A50194010F94964D9B01AC01C701B601CD
:104A60000F947D512CA53DA54EA55FA50F947C51BB
:104A700012C089E40E943E3B882331F00E94BE3A76
:104A800069837A838B839C838AE40E943E3B8823DC
:104A900031F00E94BE3A6D837E838F83988720E039
:104AA00030E0A90169817A818B819C810F94314D1D
:104AB00081110EC020E030E0A9016D817E818F81DF
:104AC00098850F94314D811103C0E4EFFFE20DC0D2
:104AD000412FBE016F5F7F4F8CEA96E00E942377E3
:104AE0000C943C360E946783F80184918F010F5F1C
:104AF0001F4F8111F7CFEEEEF2E084918F010F5F2F
:104B00001F4F882311F40C943C360E946783F801F0
:104B1000F4CF80E50E943E3B882329F00E94D78293
:104B20006B017C0103C0C12CD12C760183E50E946E
:104B30003E3B882361F00E94BE3A20E030E04AE725
:104B400054E40F94964D0F94C6526B017C010E9461
:104B500094B480911409811105C060E084E093E071
:104B60000E94C9A20E9420FBC60ED71EE81EF91E95
:104B70000E9420FBDC01CB018C199D09AE09BF0905
:104B8000B7FD02C00C943C3680E00E94D173F0CF98
:104B90000E94C9BA81110C943C3680E090E0A0E0FC
:104BA000B0E489839A83AB83BC8380E090E0A3E484
:104BB000B3E48D839E83AF83B88780E090E0A0EA62
:104BC000B1E489879A87AB87BC8780E50E943E3B2A
:104BD000882319F00E948E3A01C060E068A3BE01EC
:104BE0006F5F7F4FCE0180960F94D53A0C943C3680
:104BF00080916D0685FF0EC0E3EDF3E084918F0197
:104C00000F5F1F4F882321F00E946783F801F6CFC2
:104C10000E94CA4780915C068770873011F00C941F
:104C200046368FE40E943E3B882379F00E94AF3ADB
:104C3000882311F40C94463680916D0685FD02C0E0
:104C40000C943C36E8EBF3E007C08FE40E94F53AA1
:104C5000EFCF0E946783F80184918F010F5F1F4F90
:104C60008111F7CFE1E7F3E084918F010F5F1F4FD0
:104C7000882311F40C943C360E946783F801F4CF2A
:104C80000E94A44C0C943C36C0909806D090990693
:104C9000E0909A06F0909B0688E50E943E3B8111C9
:104CA00009C020E030E048EC51E4C701B6010F94A0
:104CB0007C5102C00E94BE3A68A379A38AA39BA339
:104CC000C0909C06D0909D06E0909E06F0909F06B6
:104CD00089E50E943E3B811108C020E030E0A90137
:104CE000C701B6010F947D5102C00E94BE3A9B01DC
:104CF000AC0169837A838B839C8368A179A18AA1A3
:104D00009BA10E94C45B882311F40C943C3680E084
:104D10000E94104C0E94C48A85E40E943E3B882376
:104D200021F00E94AF3A182F04C085E40E94F53AA2
:104D300011E086E50E943E3B882321F00E948E3AD6
:104D4000262F01C021E0412FBE016F5F7F4FCE01B2
:104D500080960E9472BB6B017C019B01AC010F9499
:104D6000295481115FC088A099A0AAA0BBA020E00F
:104D700030E0A901C501B4010F94314D87FF05C092
:104D800027E137EB41E558EB04C027E137EB41E57C
:104D900058E3C501B4010F947D51AB01BC0186EE0F
:104DA00093E00F94122889809A80AB80BC8020E029
:104DB00030E0A901C501B4010F94314D87FF05C052
:104DC00027E137EB41E558EB04C027E137EB41E53C
:104DD00058E3C501B4010F947D51AB01BC0181EED4
:104DE00093E00F94122820E030E0A901C701B6013A
:104DF0000F94314D87FF05C027E137EB41E558EBB4
:104E000004C027E137EB41E558E3C701B6010F9431
:104E10007D51AB01BC018CED93E00F9412288AE028
:104E20000E9467830E94A08A113011F40E94824779
:104E30000F94AB210C943C3680917602882311F4B8
:104E40000C943C3689E40E943E3B182F882321F0C5
:104E50000E948E3AE62E01C0E12C8AE40E943E3B7D
:104E6000F82E882321F00E948E3A062F01C000E020
:104E7000112319F095E09E1520F0FF2081F00430F9
:104E800070F0EEEEF3E084918F010F5F1F4F8823E7
:104E900011F40C943C360E946783F801F4CF0E9411
:104EA000583B1123F1F02091E3053091E4054E2D9C
:104EB0004203B001439F700D11248091380C9091F2
:104EC000390C680F791F072E000C880B990B0F9473
:104ED000374D6093AC067093AD068093AE06909309
:104EE000AF06FF20E9F02091E5053091E6050203C9
:104EF000B001039F700D112480913A0C90913B0CEE
:104F0000680F791F072E000C880B990B0F94374DF3
:104F10006093B0067093B1068093B2069093B30687
:104F200080E50E943E3B8823E9F00E94AF3A882347
:104F3000E9F01123D9F020E030E048EC51E4609131
:104F4000AC067091AD068091AE069091AF060F94BD
:104F50007D516093AC067093AD068093AE0690933E
:104F6000AF0604C080E50E94F53AE1CF86E40E94D6
:104F70003E3B8823D9F00E94BE3A6B017C0120E0C1
:104F800030E0A9010F94A353181684F420E030E018
:104F900040E752E4C701B6010F94595260933602BC
:104FA0007093370280933802909339020E94367BC7
:104FB0000C943C362093B3030C943C3667E8262EC1
:104FC00062E0362E7EE3E72E74E0F72E88E996E065
:104FD00099A788A7E1E6CE2EE6E0DE2E00E010E0FD
:104FE000D1018D911D010E943E3B882309F44BC0E5
:104FF0000E94BE3A2B013C01133049F0F60120819A
:105000003181428153810F947C512B013C01A8A531
:10501000B9A52D913D914D915C91C301B2010F94C1
:105020007C514B015C012DEB37E346E855EB0F94C7
:10503000A35387FD0AC02DEB37E346E855E3C501CE
:10504000B4010F94314D1816F4F4133051F440921A
:10505000A4065092A5066092A6067092A70601E0EB
:1050600012C0A5019401F701608171818281938151
:105070000F947D51D7016D937D938D939C931397DE
:10508000812F0E946E831F5FB4E0EB0EF11CE8A538
:10509000F9A53496F9A7E8A7F4E0CF0ED11C143097
:1050A00009F09ECF002321F084EA96E00E9468BABE
:1050B0000F94AB210C943C360E9453EE0C943C367A
:1050C0008091BC179091BD178737910511F40C940E
:1050D0008B300CF0F9C08C34910509F426C50CF026
:1050E00075C08A31910509F410C3ECF5843191053E
:1050F00009F4FAC17CF48131910509F470C22CF4F1
:10510000029708F4F4C10C94DE35429709F47BC68B
:105110000C94DE358731910509F4B7C274F48531FA
:10512000910509F4AEC2469711F00C94DE35109249
:10513000B4091092B5090C943C368831910509F4F4
:10514000BAC2499711F00C94DE351092B4090F944D
:10515000CB3289E494E09093600C80935F0C0E94C2
:1051600078820C943C368F31910509F4CAC39CF4C3
:105170008C31910509F46FC30CF4D5C28D319105C2
:1051800011F40C943C364E9711F00C94DE350E94CD
:10519000DEEA0C943C368033910509F49DC44CF44E
:1051A0008032910509F461C38A9709F460C40C94B4
:1051B000DE358133910509F493C48B34910511F0E8
:1051C0000C94DE350F94A9320C943C368B36910545
:1051D00009F4EFC50CF043C08435910509F413C6FA
:1051E000E4F48135910509F4F7C54CF48D3491054B
:1051F00011F00C94DE350F94E0320C943C3682357D
:10520000910509F4FDC58335910511F00C94DE3547
:1052100081E08093B2030C943C368836910509F402
:1052200088C49CF48535910509F4F0C58C35910549
:1052300011F00C94DE3597E8C92E92E0D92E20E8C3
:10524000E22E26E0F22E10E0FAC58936910509F427
:105250003EC58A36910509F490C50C94DE35803739
:10526000910509F406C584F48D36910509F46FC5DE
:105270000CF4FBC48E36910509F491C48F36910568
:1052800009F4A0C40C94DE358337910509F429C1D3
:1052900054F48137910509F4F0C48237910509F47B
:1052A0004DC60C94DE358537910509F4DFC6863787
:1052B000910511F00C94DE350091BA171091BB17CF
:1052C00083E0D12C40E0E7C68E3221E0920711F452
:1052D0000C9430330CF079C08C3C910511F40C9493
:1052E000B231BCF58139910509F423C784F48937BB
:1052F000910509F419C70CF411C78D37910509F40C
:1053000068C58C38910509F425C50C94DE35883CB8
:10531000910509F486C76CF48B39910509F4F2C440
:105320008E3B910511F00C94DE350F94D3220C9432
:105330003C36893C910509F4E0C78B3C910511F09E
:105340000C94DE35E7E8EE2EE2E0FE2E0CE81DE0E0
:10535000FAC78C3D910511F40C945B32A4F48E3C99
:10536000910511F40C942A3214F40C942732833DE5
:10537000910511F40C944C328A3D910511F40C9472
:105380004F320C94DE35823241E0940711F40C94D4
:10539000FE3264F48D3D910511F40C946832823E26
:1053A000910511F40C94D7320C94DE358C32B1E0B7
:1053B0009B0711F40C9409338D32914011F00C9439
:1053C000DE350F94551E0C943C36843FF1E09F0768
:1053D00011F40C94AA340CF043C0813931E09307E6
:1053E00011F40C941034BCF48033A1E09A0711F44A
:1053F0000C94833314F40C9480338336E1E09E07DD
:1054000009F46BC08039914011F00C94DE350E9494
:1054100094B40C943C36843A21E0920711F40C9435
:105420001E347CF4823941E0940711F40C94163454
:105430008A39914011F00C94DE350E94AE6D0C94C7
:105440003C36853AB1E09B0711F40C9421348C3A38
:10545000914011F00C94DE350E94E96A0C943C36C0
:105460008835F2E09F0711F40C94E134B4F4863FE0
:1054700031E0930711F40C94B03414F40C94AD346F
:10548000873FA1E09A0711F40C94B334883F914010
:1054900011F40C94BD340C94DE358B38E3E09E0798
:1054A00011F40C943C366CF48B3522E0920711F425
:1054B0000C94E4348335934011F40C9469350C94C6
:1054C000DE35803A43E0940709F40EC2873E9340EC
:1054D00011F40C94CC350C94DE35E4EFFFE20C941F
:1054E000FD33E9E0F6E067C5E8E3F4E08CC0A090A6
:1054F000BA17B090BB1780E50E943E3B882359F055
:105500000E94D7826B017C0111E0672B682B692B0D
:1055100031F410E004C010E0C12CD12C760183E5F9
:105520000E943E3B882311F40C9493370E94BE3AAC
:1055300020E030E04AE754E40F94964D0F94C652B1
:105540006B017C0111110BC0672B682B692B39F49F
:10555000A114B10421F0F5018081811102C010E095
:1055600001C011E00E9494B4112329F061E0C5014B
:105570000E9403A305C060E08DE094E00E94C9A2F0
:1055800083E08093710C81E08093700CC114D1048E
:10559000E104F104B1F00E9420FBC60ED71EE81E04
:1055A000F91E0E9420FBDC01CB018C199D09AE097C
:1055B000BF09B7FF0EC08091700C81110C94983711
:1055C00008C08091700C882321F080E00E94D17384
:1055D000F8CF0E94B1BF1092700C0C943C3660E082
:1055E00080E294E00E94C9A280910B0182708093B6
:1055F00009018998809108018170809306011298B1
:1056000015980C943C3684918F010F5F1F4F8823AF
:1056100021F00E946783F801F6CF1092310C84EEDE
:1056200099E00E9481548BE1E4EEF9E0DE011596E9
:1056300001900D928A95E1F78091E2099091E3093A
:105640009C838B8385EA92E09A83898340E050E0D3
:10565000BE016F5F7F4F80E090E00E949FD3CE013C
:1056600001960E94125DE9E2F4E084918F010F5FE0
:105670001F4F882311F40C943C360E946783F80175
:10568000F4CF0E9434B70C943C36E091BA17F091F5
:10569000BB178081882329F0803209F4108231966B
:1056A000F8CF40E061E08091BA179091BB170E945B
:1056B00062D60C943C3680E090E0A8E4B2E48983A2
:1056C0009A83AB83BC8318A219A21AA21BA21CA2A4
:1056D0001DA21EA21FA280910E09882359F020E06E
:1056E000AE014F5F5F4FBE01605E7F4FCE0184967B
:1056F0000E94B5EC8091B509882319F081E0809370
:10570000B4090F94A9320C943C368091B5098823D2
:1057100011F40C943C3683E50E943E3B81110C94BD
:105720009D370C943C3683E40E94F53A882309F4B3
:1057300050C0EBE7F4E084918F010F5F1F4F882387
:1057400021F00E946783F801F6CF80917F0B8111D1
:1057500003C0EEE4F4E012C0BE016F5F7F4F8CE740
:105760009BE00E9449538E010F5F1F4FD8018D911E
:105770008D01882349F10E946783F8CF84918F01BE
:105780000F5F1F4F882301F10E946783F801F6CF56
:1057900039EEC32E34E0D32EE12CF12C20E08091A1
:1057A0006D0690E00E2C02C0959587950A94E2F75D
:1057B00080FD38C2FFEFEF1AFF0A32E0C30ED11CA2
:1057C00046E0E416F10459F78AE00E9467830C94DE
:1057D0003C368091B509882339F08091B40988233B
:1057E00019F0E8E5F4E003C0EAE6F4E028C08491AB
:1057F0008F010F5F1F4F882321F00E946783F801FC
:10580000F6CF60912D0C70912E0C80912F0C909101
:10581000300C4AE00E949E868FE20E94678360916E
:10582000290C70912A0C80912B0C90912C0C4AE041
:105830000E949E868AE00E9467830C943C36849185
:105840008F010F5F1F4F882311F40C943C360E9488
:105850006783F801F4CF40E060E08091BA1790913F
:10586000BB170E9462D60C943C368091B40981111A
:105870000E9494B48091B509882311F40C943C36AD
:1058800080E50E943E3B882319F00E94AF3A03C096
:1058900080E50E94F53A182F482F61E08091BA17F1
:1058A0009091BB170E9462D683E50E943E3B8823FD
:1058B00081F00E948E3AAB01BC0140932D0C5093B5
:1058C0002E0C60932F0C7093300C8CE79BE00F94A0
:1058D0004B2F8091B509882319F081E08093B4099A
:1058E00011110C943C360DCF8091BA179091BB17D3
:1058F00021E02093B30940E060E00E9462D60C945E
:105900003C360F945A327B018C0120E831E541E0AE
:1059100050E00F941F51C9016DE671E00F9445549A
:105920004B015C01C801B70120E13EE040E050E0DE
:105930000F941F51CA01B90128E130E040E050E066
:105940000F941F51762E672EC62ED72E5CE3252E80
:10595000312C412C512CC801B701A20191010F94A7
:105960001F51F62EE72ECA01B901A20191010F9431
:105970001F51CB018E010F5F1F4F8114910499F0CD
:10598000EF92FF927F936F936F927F92BF92AF924D
:105990009F928F9282EB94E09F938F931F930F932C
:1059A0000F94CB4C13C0A114B104B1F0EF92FF924D
:1059B0007F936F936F927F92BF92AF9282EA94E04F
:1059C0009F938F931F930F930F94CB4C0FB6F89424
:1059D000DEBF0FBECDBF30C0CD2879F0EF92FF9271
:1059E0007F936F936F927F9286E994E09F938F935A
:1059F0001F930F930F94CB4CE9CF892B69F0EF9253
:105A0000FF927F936F938EE894E09F938F931F9301
:105A10000F930F94CB4CDACFEF92FF928AE894E089
:105A20009F938F931F930F930F94CB4C0F900F90D6
:105A30000F900F900F900F9060E0C8010E9403A399
:105A4000E3E2F0E384917F01BFEFEB1AFB0A8823C6
:105A500021F00E946783F701F5CFB80186EC94E04E
:105A60000F945C288AE00E9467830C943C3683E59F
:105A70000E943E3B882311F40C943C360E949E3ACF
:105A8000E82E80E50E943E3B882339F00E949E3A32
:105A9000182F87FF03C00C943C3616E089E40E945F
:105AA0003E3B882351F00E94AF3A81110C94773825
:105AB000EFE4F7E085E897E00AC089E40E94F53A50
:105AC000F4CF31968E179F0711F40C9477382491F8
:105AD0001213F7CF0C9413380E9408E30C943C3651
