:100000000C94021D0C94331D0C94331D0C94331D61
:100010000C94331D0C94331D0C94331D0C94331D20
:100020000C94331D0C94331D0C94331D0C94331D10
:100030000C94331D0C94331D0C94331D0C94331D00
:100040000C94331D0D94C1110C94331D0C94331D6D
:100050000C94331D0C94331D0C9416890D94823529
:100060000C94331D0C94533F0C94493F0C94331D56
:100070000C94331D0C94331D0C94331D0C94331DC0
:100080000C94331D0C94331D0C94331D0C94331DB0
:100090000C94331D0C94331D0C94331D0C94331DA0
:1000A0000C94331D0C94331D0C94331D0C94331D90
:1000B0000C94331D0C94331D0C94331D0C94331D80
:1000C0000C94331D0C94331D0C94331D0C94331D70
:1000D0000C94331D0C94331D0C94331D0C94331D60
:1000E0000C94331D9D8767886C887F8884889788E7
:1000F000A3888D879BAE7EAE81AE9EAE84AE87AE6A
:100100008AAE96AE8DAEA9AE90AE93AE8E01EE01E4
:100110001E0112012E0174019A0162013C02760156
:100120005E01BC01F800240274016001F201340296
:100130005001880170012C01700170017001700183
:100140007001700170017001700170017001700127
:100150007001700170017001700170017001700117
:100160007001700170017001700170010C0170016B
:1001700070017001700170017001700170017201F5
:1001800070017001700170017001700170017001E7
:1001900070017001E0019C01084AD73B3BCE016E23
:1001A00084BCBFFDC12F3D6C74319ABD56833DDACE
:1001B0003D00C77F11BED9E4BB4C3E916BAAAABEDD
:1001C000000000803F05A84CCDB2D44EB93836A906
:1001D000020C50B9918688083CA6AAAA2ABE000043
:1001E00000803F000C94EB8F0D94D0200C940BAF4B
:1001F0000D9433110C9464A90D9407250C9450A907
:100200000C94D5510C9439690C947FB00D9403254E
:100210000C94A2B50C9405B60D94F3220C9484AE04
:100220000C94D5640D9406110D941C250C9463AFA9
:100230000C947EAE0D94B2240C9493B50D940211DF
:100240000C948DB50C947F880C94096D0D94D62078
:100250000C94A9AE0C94EEB00D94F9220D940A11F1
:100260000C9444A90C94D9B50C9437AF0C948AAE75
:100270000C94EB6E0C944CA90C947D720C94835CE2
:100280000C9493AE0C94B8B00C94F4B00C949BAE58
:100290000C9468B00C94E8B00C945CA90C9424AB5A
:1002A0000D94BD220D94B7260C94C1B00C94D96462
:1002B0000C94C36A0C9406B10D945D020D9429113F
:1002C0000D943D110D941B110C9465B30C94837225
:1002D0000C94BCAF0C9496AE0C9431600C94A38833
:1002E0000D9476210D94CC220D944A110D94251174
:1002F0000C94FF650C9426600C9449B00C94DDAE10
:100300000C94576C0C94CA6B0C9454A90D94593EE0
:100310000D943D210D94E5260D94713D0D94101121
:100320000C9405660C94AB510C9432F60C94DCB032
:100330000C945D5E0D9417110D9473210C941EABFB
:100340000C949EAE0C948DAE0C94ABB50C94F3AAA9
:100350000C94F56E0C9494F20C946B9D0C949D8708
:100360000C94FA6E0C94AE510C94056D0C94F06ED6
:100370000C941CB20C9458A90D942F110C94A9B094
:100380000C94ABAE0C9484880C947CAF0C9470B03D
:100390000C9444F60D94D3200C94636C0C9481AEB1
:1003A0000C942AAB0C9498F20C948BB50C9496F2A6
:1003B0000C9464720C9498640C94BAA90D94202542
:1003C0000D9410230C948EB00C94E2B00C9400B1F8
:1003D0000C94096C0C94516C0C9453A70D9413114C
:1003E0000C949CF20D9441110C948D870C94438ACB
:1003F0000C94FFAA0C944E6F0C946AAD0C94CC64D0
:100400000C949DAF0C94F8AE0C9472A70C946C886D
:100410000C944AAF0C94755C0C9487AE0C94955C6C
:100420000C94AA510C94D0B00C9460A90C9438A7E9
:100430000C9440A90C944B6C0C9491B50C9464648E
:100440000D9495180C9471720D9437110C948A8F39
:100450000C94C6A90C9436F60C9451A70C946B72AC
:100460000C945D6C0C9465670D9445110C94DB5DE8
:100470000C941B620C9467880D9421110C9490AE1F
:100480000D9418250C948FB50C94AFF90C94566FFD
:100490000C94D6B00C94DD640C949DB00C9460F474
:1004A0000C94116C0C94ED640C9497880C941EAF12
:1004B0000C9477720C9448A90C94DBAF0C949AF2CC
:1004C0000C9437520C94FAB00C94C4AE0C9425A73B
:1004D0000C943DF60C940BAB4E414E494E49545989
:1004E000494E46CDCCCC3D0AD7233C17B7D13877FF
:1004F000CC2B329595E6241FB14F0A000020410015
:1005000000C84200401C4620BCBE4CCA1B0E5AAE5E
:10051000C59D7400407A10F35A00A0724E1809006D
:1005200010A5D4E80000E87648170000E40B540258
:100530000000CA9A3B000000E1F505000080969893
:1005400000000040420F000000A0860100000010E3
:100550002700000000E80300000000640000000025
:10056000000A00000000000100000000002C76D806
:1005700088DC674F0823DFC1DFAE59E1B1B796E5EC
:10058000E3E453C63AE651997696E8E6C28426EB50
:10059000898C9B62ED407C6FFCEFBC9C9F40F2BA63
:1005A000A56FA5F490055A2AF75C936B6CF9676DFB
:1005B000C11BFCE0E40D47FEF520E6B500D0ED9050
:1005C0002E0300943577050080841E080000204E1D
:1005D0000A000000C80C333333330F986E128311B6
:1005E00041EF8D2114893BE65516CFFEE6DB18D18D
:1005F000844B381BF77C1D901DA4BBE4242032845F
:10060000725E228100C9F124ECA1E53D27434F4DE4
:100610004D554E49434154494F4E0044525952554D
:100620004E004552524F525300494E464F004543EB
:10063000484F0020643A0020693A0020703A004791
:10064000322F47332062616420706172616D65747E
:100650006572730A00536C6565702E2E2E005A2049
:1006600050726F62652050617374204265640A00A5
:100670005A2050726F626520506173742042656425
:10068000004D65736820706F696E74206F757420FB
:100690006F662072616E67650A00436C69636B2048
:1006A000746F20526573756D652E2E2E004E6F206F
:1006B0004D6F76652E00456E642066696C65206C12
:1006C0006973740A00426567696E2066696C65200B
:1006D0006C6973740A004E6F206D656469610A006D
:1006E000286E6F2066696C65290043757272656EAD
:1006F000742066696C653A20005344207072696EFC
:1007000074696E67206279746520004E6F7420539F
:1007100044207072696E74696E670A0044656C6586
:1007200074696F6E206661696C65642C2046696C23
:10073000653A200046696C652064656C6574656483
:100740003A00256979202569642025696820256992
:100750006D20256973005072696E742074696D652F
:100760003A2000452563202553006F666600444506
:100770004255473A004D3131322053687574646FE9
:10078000776E004D31313320530042656420436F52
:100790006F6C696E672E2E2E00426564204865617D
:1007A00074696E672E2E2E00426967426F7820446E
:1007B00075616C204F46462E004348414D424552DC
:1007C0005F54454D504552415455524500424142B7
:1007D000595354455050494E470041524353004DE0
:1007E0004F54494F4E5F4D4F444553005448455276
:1007F0004D414C5F50524F54454354494F4E004C6D
:100800004F4E475F46494C454E414D45004155547A
:100810004F5245504F52545F53445F5354415455C7
:1008200053005344434152440050524F4D50545F83
:10083000535550504F525400454D455247454E4335
:10084000595F50415253455200434153455F4C4913
:100850004748545F4252494748544E455353005409
:100860004F47474C455F4C494748545300534F4608
:1008700054574152455F504F574552004255494CDD
:10088000445F50455243454E54004C4556454C49F3
:100890004E475F44415441005A5F50524F42450019
:1008A00052554E4F5554004155544F4C4556454CAA
:1008B000005052494E545F4A4F420050524F4752E7
:1008C000455353004155544F5245504F52545F5475
:1008D000454D5000564F4C554D45545249430042EA
:1008E000494E4152595F46494C455F5452414E531F
:1008F0004645520053455249414C5F584F4E5F5850
:100900004F4646004649524D574152455F4E414D74
:10091000453A4D61726C696E20322E302E372E3280
:10092000202844656320203720323032302030398F
:100930003A34383A33382920534F555243455F43B0
:100940004F44455F55524C3A68747470733A2F2F78
:100950006769746875622E636F6D2F4D61726C6983
:100960006E4669726D776172652F4D61726C696E4A
:100970002050524F544F434F4C5F56455253494FAE
:100980004E3A312E30204D414348494E455F54592F
:1009900050453A426967426F78204475616C204542
:1009A000585452554445525F434F554E543A3220A5
:1009B000555549443A30363034356534652D333633
:1009C00065652D313165622D616463312D303234BE
:1009D0003261633132303030320A002F2F20004D27
:1009E00031343520533C696E6465783E206F7574F0
:1009F000206F662072616E67652028302D31290ACC
:100A000000416363656C65726174696F6E3A205072
:100A1000003F4A206F7574206F662072616E6765B3
:100A20002028302E303120746F20302E33290A00D8
:100A300046523A0020466C6F773A20006469730092
:100A400043290A0061626C656420286D696E207418
:100A5000656D702000436F6C6420657874727564F6
:100A600065732061726520004D34323120696E63F8
:100A70006F727265637420706172616D6574657206
:100A80002075736167650A004F666673657473202D
:100A90004170706C696564004572723A20546F6FE2
:100AA000206661722100546F6F2066617220667249
:100AB0006F6D207265666572656E636520706F6923
:100AC0006E740A00454550524F4D204F4B0A00446A
:100AD0006F6E65207072696E74696E672066696CEE
:100AE000650A004D3737004D3331002E06290622A6
:100AF000061B060D064572726F7220777269746963
:100B00006E6720746F20454550524F4D210A004DAD
:100B1000343130004D313132004D313038005354D2
:100B20004F505045442E20005072696E74657220FB
:100B300073746F707065642064756520746F2065D0
:100B400072726F72732E2046697820746865206512
:100B500072726F7220616E6420757365204D393931
:100B60003920746F20726573746172742E2028545A
:100B7000656D706572617475726520697320726548
:100B80007365742E205365742069742061667465E2
:100B9000722072657374617274696E67290A004EFF
:100BA0006F20436865636B73756D20776974682087
:100BB0006C696E65206E756D6265722C204C617378
:100BC00074204C696E653A2000636865636B7375C9
:100BD0006D206D69736D617463682C204C61737452
:100BE000204C696E653A20004C696E65204E756D2B
:100BF000626572206973206E6F74204C617374207B
:100C00004C696E65204E756D6265722B312C204CDF
:100C1000617374204C696E653A20004D31313000AB
:100C200053442072656164206572726F720A0021FC
:100C300021204B494C4C20636175736564206279B7
:100C4000204B494C4C20627574746F6E2F70696E26
:100C50000A002121204B494C4C2063617573656467
:100C600020627920746F6F206D75636820696E61F2
:100C700063746976652074696D65202D20637572D3
:100C800072656E7420636F6D6D616E643A200062F0
:100C90007573793A2070617573656420666F722090
:100CA000696E7075740A00627573793A20706175A7
:100CB00073656420666F7220757365720A006275D1
:100CC00073793A2070726F63657373696E670A0097
:100CD0004D656469612052656D6F766564004D6590
:100CE00064696120496E73657274656400506C6557
:100CF000617365205265736574005052494E5445C6
:100D0000522048414C5445440025533A2025530075
:100D10004B494C4C45442E20005072696E746572EC
:100D20002068616C7465642E206B696C6C282920C6
:100D300063616C6C6564210A006563686F3A004505
:100D400072726F723A0042696C696E656172204C12
:100D50006576656C696E6720477269643A0A004877
:100D60006F74656E6420746F6F20636F6C640A002B
:100D70004732362048656174696E67204E6F7A7A13
:100D80006C65004732362048656174696E672042A1
:100D900065640057616974696E6720666F722068C8
:100DA00065617475702E0A004669786564204C652B
:100DB0006E677468205072696D6500446F6E6520BF
:100DC0005072696D696E67004D616E75616C20705F
:100DD00072696D696E672E2E2E0047323620436190
:100DE0006E63656C6564004C656176696E6720476B
:100DF0003236003F53706563696669656420582C1C
:100E00005920636F6F7264696E617465206F7574C9
:100E1000206F6620626F756E64732E0A003F285241
:100E20002965706561742076616C7565206E6F74DC
:100E300020706C61757369626C653B206D757374AD
:100E4000206265206174206C6561737420312E0A04
:100E5000003F537065636966696564206E6F7A7AD6
:100E60006C652074656D7065726174757265206E55
:100E70006F7420706C61757369626C652E0A003F37
:100E80005370656369666965642066696C616D6548
:100E90006E742073697A65206E6F7420706C617552
:100EA0007369626C652E0A003F53706563696669F9
:100EB0006564207072696D65206C656E677468206A
:100EC0006E6F7420706C61757369626C652E0A00B8
:100ED0003F537065636966696564206E6F7A7A6CEA
:100EE000652073697A65206E6F7420706C6175730C
:100EF00069626C652E0A003F5265747261637469A1
:100F00006F6E204D756C7469706C696572206D75BB
:100F10007374206265207370656369666965642E09
:100F20000A003F53706563696669656420526574A1
:100F300072616374696F6E204D756C7469706C6951
:100F40006572206E6F7420706C61757369626C6578
:100F50002E0A003F537065636966696564206C61A1
:100F600079657220686569676874206E6F74207097
:100F70006C61757369626C652E0A0043292E0A0044
:100F80003F537065636966696564206265642074B7
:100F9000656D7065726174757265206E6F74207016
:100FA0006C61757369626C65202834302D0047329E
:100FB00036207374617274696E672E2E2E0A006576
:100FC0006E7175657565696E672022006F6B0052E2
:100FD0006573656E643A200023646566696E6520FA
:100FE00044454641554C545F004B6420004B6920FA
:100FF000004B702000504944204175746F74756E29
:10100000652066696E697368656421205075742077
:10101000746865206C617374204B702C204B6920C0
:10102000616E64204B6420636F6E7374616E7473C1
:101030002066726F6D2062656C6F7720696E746FC9
:1010400020436F6E66696775726174696F6E2E6892
:101050000A00504944204175746F74756E652066AE
:1010600061696C6564212074696D656F75740A002F
:101070000A20436C617373696320504944200A005D
:10108000204B643A2000204B693A2000204B703AF4
:1010900020000A204E6F206F76657273686F6F7440
:1010A0000A002054753A2000204B753A2000206D2C
:1010B00061783A2000206D696E3A200020643A2061
:1010C0000020626961733A200050494420417574E0
:1010D0006F74756E652073746172740A00504944B0
:1010E000204175746F74756E65206661696C656406
:1010F000212054656D706572617475726520746F1E
:101100006F20686967680A00504944204175746F10
:1011100074756E6500504944204175746F74756E26
:1011200065206661696C6564212042616420657890
:10113000747275646572206E756D6265720A004521
:1011400072723A207574663820666F6E74206E6F06
:101150007420696E697469616C697A65642E000037
:101160000C0F00FE07022503BB017FFE08FE08FEF0
:1011700005080806000040F0C8888898781005081F
:1011800008060000C0F88888888888F805050506E4
:1011900000012030F830200508080600002070F813
:1011A00020202020E00509090600FF2070A8A8B82B
:1011B00088887020070505070001D86C366CD805B3
:1011C00009090600FFF8A88888888888A8F8050A11
:1011D0000A0600FE205050505088A8A888700303CB
:1011E0000306000340A040FFFFFFFFFFFFFFFFFFDC
:1011F000FFFFFFFFFFFFFFFFFFFFFFFFFF000000FC
:101200000605FF01070706020080808080800080BD
:10121000030303060105A0A0A00506060600005072
:10122000F85050F8500509090600FF2070A8A0707A
:1012300028A87020050707060000C8C8102040989D
:101240009805070706000040A0A040A89068010389
:10125000030602058080800309090601FF20404043
:101260008080804040200309090601FF8040402023
:10127000202040408005070706000020A87020704D
:10128000A8200505050600012020F8202002030300
:101290000601FFC04080050101060003F8020202BA
:1012A000060100C0C0050707060000081010204016
:1012B0004080050707060000708898A8C88870035A
:1012C000070706010040C040404040E00507070610
:1012D0000000708808102040F8050707060000F895
:1012E000081030088870050707060000103050907D
:1012F000F81010050707060000F880F0080888704D
:10130000050707060000304080F088887005070751
:10131000060000F80810102020200507070600002E
:1013200070888870888870050707060000708888B4
:1013300078081060020505060100C0C000C0C002A8
:1013400006060601FFC0C000C04080030505060177
:10135000012040804020050303060002F800F80346
:1013600005050601018040204080050707060000B2
:10137000708810202000200507070600007088B83C
:10138000A8B88070050707060000708888F888886C
:1013900088050707060000F04848704848F0050730
:1013A00007060000708880808088700507070600A7
:1013B00000F04848484848F0050707060000F88054
:1013C00080F08080F8050707060000F88080F08034
:1013D0008080050707060000708880809888700567
:1013E0000707060000888888F888888803070706AA
:1013F0000100E04040404040E0050707060000389B
:101400001010101090600507070600008890A0C01B
:10141000A09088050707060000808080808080F803
:1014200005070706000088D8A88888888805070768
:101430000600008888C8A898888805070706000065
:1014400070888888888870050707060000F08888FB
:10145000F080808005070706000070888888A890C3
:1014600068050707060000F08888F0A09088050747
:10147000070600007088807008887005070706005E
:1014800000F820202020202005070706000088887B
:101490008888888870050707060000888888885033
:1014A000502005070706000088888888A8A85005EE
:1014B000070706000088885020508888050707061F
:1014C000000088885020202020050707060000F82B
:1014D0000810204080F80309090601FFE0808080A1
:1014E00080808080E00507070600008040402010D3
:1014F00010080309090601FFE020202020202020F9
:10150000E00503030600052050880501010600FEE2
:10151000F8030303060105804020050505060000C9
:1015200070087888780507070600008080F08888B2
:1015300088F00505050600007080808870050707A3
:1015400006000008087888888878050505060000E8
:101550007088F08070050707060000304840E040C2
:1015600040400507070600FE7088888878087005E7
:1015700007070600008080F0888888880307070630
:1015800001004000C0404040E00409090601FE108F
:1015900000301010101090600507070600008080D2
:1015A0008890E09088030707060100C04040404053
:1015B00040E0050505060000D0A8A8A8A805050577
:1015C000060000B0C88888880505050600007088F8
:1015D0008888700507070600FEF0888888F08080FC
:1015E0000507070600FE788888887808080505053D
:1015F000060000B0C88080800505050600007880E0
:101600007008F00507070600002020F820202018A9
:101610000505050600008888889868050505060008
:101620000088888850200505050600008888A8A83D
:10163000500505050600008850205088050707065C
:1016400000FE88888850204080050505060000F8C7
:10165000102040F80309090601FF20404040804067
:101660004040200109090602FF8080808080808040
:1016700080800309090601FF80404040204040402F
:101680008005030306000248A890FF4F6666004FDE
:101690006E0050726F6265205A204F6666736574E3
:1016A00000416476616E6365642053657474696E8D
:1016B00067730053746F72652053657474696E6745
:1016C00073004C6F61642053657474696E677300B6
:1016D0004C6576656C20436F726E6572730046616F
:1016E000646520486569676874004C6576656C20A0
:1016F000426564004732380A473239005A20526145
:1017000069736500326E64204E6F7A7A6C65205A78
:1017100000326E64204E6F7A7A6C65205900326E0A
:1017200064204E6F7A7A6C65205800526573746F2E
:1017300072652044656661756C74730050726568EB
:10174000656174202420436F6E6600546F6F6C20B7
:101750004368616E676500546F6F6C204F666673F7
:10176000657473004D3834004175746F20486F6D97
:10177000650054656D7065726174757265004142F3
:101780005300504C4100507265686561742024001C
:1017900046616E205370656564004D61696E00445A
:1017A000697361626C652053746570706572730053
:1017B0004D34382050726F62652054657374004751
:1017C0003238204F0A4D34382050313000473238FB
:1017D000004D6F76652041786973005072656865C9
:1017E0006174202420416C6C0050726568656174DE
:1017F000202420456E64207E005072656865617407
:10180000202420426564005072656865617420245C
:10181000207E00436F6F6C646F776E004E6F7A7A34
:101820006C65207E004261627973746570205A0095
:10183000466C6F77207E00466C6F770082177E17AC
:1018400043616E63656C004261636B004D6F746948
:101850006F6E005374617274205072696E7400432D
:10186000616E6E6F7420656E74657220737562644C
:1018700069723A2000022E2E004D6F766520257386
:101880006D6D004D6F766520302E316D6D004D6FA2
:10189000766520316D6D004D6F76652031306D6D50
:1018A00000486F74656E6420746F6F20636F6C64A2
:1018B0000050726F63656564004578747275646585
:1018C00072202A004578747275646572004D6F76D7
:1018D00065205A004D6F76652059004D6F76652062
:1018E000580053657474696E67732053746F726522
:1018F00064002062797465733B2063726320005337
:10190000657474696E67732053746F726564202800
:1019100000454550524F4D206461746173697A658A
:10192000206572726F722E0A002073746F72656484
:101930002073657474696E6773207265747269656B
:10194000766564202800202863616C63756C61747F
:10195000656429210A0020213D2000454550524F51
:101960004D20435243206D69736D61746368202D6F
:10197000202873746F726564292000496E6465784D
:101980003A200044494749504F5453204C6F6164FA
:1019900065640A0044494749504F5453204C6F61D5
:1019A00064696E670A00204D61726C696E3D56383D
:1019B00032290A00454550524F4D207665727369B1
:1019C0006F6E206D69736D617463682028454550A2
:1019D000524F4D3D00496E76616C696420657874A4
:1019E00072756465720A00544845524D414C20524C
:1019F000554E4157415900546865726D616C2052D3
:101A0000756E61776179004572723A204D41585484
:101A1000454D50004D415854454D502074726967F2
:101A20006765726564004572723A204D494E5445AF
:101A30004D50004D494E54454D50207472696767B2
:101A40006572656400202F002040002042403A006B
:101A500020403A0020573A0041637469766520457A
:101A6000787472756465723A2000456E636C6F73AA
:101A7000757265004C6F61642046696C616D656EBE
:101A800074202A004C6F6164206D6D00556E6C6F80
:101A900061642046696C616D656E74202A00556E24
:101AA0006C6F6164206D6D0046696C2E2044696125
:101AB0002E202A0046696C2E204469612E004520A4
:101AC000696E206D6DC2B3004D3330332055312027
:101AD000452569205325690020633A0020653A00B6
:101AE000204D393220580020204D61783A200020C6
:101AF000204D696E3A2000536F667420656E6473E2
:101B0000746F70733A20005072657373206275743D
:101B1000746F6E20746F2068656174206E6F7A7ABE
:101B20006C650A0020496E76616C69642065787482
:101B30007275646572200068747470733A2F2F6D2B
:101B400061726C696E66772E6F726700322E302E6E
:101B5000372E32002020506C616E6E6572427566C1
:101B600066657242797465733A2000204672656535
:101B7000204D656D6F72793A2000436F6D70696C0E
:101B800065643A2044656320203720323032300AC1
:101B900000204C61737420557064617465643A2050
:101BA000323032302D31302D3135207C204175746A
:101BB000686F723A206D61726B6F617572656C69E6
:101BC0006A650A00322E302E372E320A004D6172BD
:101BD0006C696E0020536F66747761726520526580
:101BE0007365740A00205761746368646F672052DC
:101BF000657365740A002042726F776E206F75748A
:101C00002052657365740A002045787465726E61B0
:101C10006C2052657365740A00506F776572557059
:101C20000A006175746F25632E6700473238585972
:101C3000004D31303031006572726F7220777269F9
:101C400074696E6720746F2066696C650A00446F62
:101C50006E6520736176696E672066696C652E0A11
:101C6000004D323900456E6473746F7073002553F4
:101C700020256320256320256320256300656E648D
:101C800073746F7073206869743A200001FFFFFF5E
:101C9000FFFFFFFFFFFFFFFFFFFF0FFFFFFFFFFF44
:101CA000FFFFFFFFFFFFFFFF1E000000000000001E
:101CB00000000007FFFF38000000000000000000E7
:101CC0000003FFFF700000000000000000000001A2
:101CD000FFFF600000000000000000000000FFFFA8
:101CE0006000000000000000000000007FFFC00056
:101CF000000000000000007800003FFFC00FC0FCA3
:101D000000000000007818001FFFC03FE1FF000046
:101D1000000000783C000FFFC07FF3FF8000000050
:101D200000783C0007FFC0FFFFFFC0000000007804
:101D30003C0003FFC1F87F87E0000000007800004E
:101D400001FFC1F03F03E00000000078000000FF49
:101D5000C1E01E01E01F0003E0783C03F07FC1E01A
:101D60001E01E07FC00FF8783C07FC3FC1E01E0178
:101D7000E1FFE01FFC783C0FFE1FC1E01E01E3FF06
:101D8000F03FFE783C1FFE0FC1E01E01E3F3F83F79
:101D90003E783C3F3F07C1E01E01E7E0FC7C1F7836
:101DA0003C3E1F07C1E01E01E7C07C7C0F783C3C35
:101DB0000F03C1E01E01E7807C780F783C3C0F03E5
:101DC000C1E01E01E7803C7800783C3C0F03C1E095
:101DD0001E01E7803C7800783C3C0F03C1E01E0107
:101DE000E7803C7800783C3C0F03C1E01E01E7C06F
:101DF0003C7800783C3C0F03C1E01E01E3E03C78F6
:101E0000007C3C3C0F03C1E01E01E3FF3FF8007F74
:101E1000BC3C0F03C1E01E01E1FF3FF8003FBFFCE7
:101E20000F03C1E01E01E0FF3FF8001FBFFC0F03DE
:101E3000C1E01E01E07F3FF8000FBFFC0F03600010
:101E4000000000000000000000000007600000002B
:101E5000000000000000000000067000000000000C
:101E6000000000000000000E38000000000000002C
:101E700000000000001C1E00000000000000000028
:101E8000000000780FFFFFFFFFFFFFFFFFFFFFFFD6
:101E9000FFF001FFFFFFFFFFFFFFFFFFFFFFFF80DE
:101EA00000000000300E0100C00E0A00500F1400A8
:101EB000D00F1E0060102800E010320070113C00AE
:101EC000F01146007012500000135A008013640095
:101ED00000146E00901478001015820090158C008C
:101EE000101696009016A0001017AA009017B400C4
:101EF0001018BE009018C8001019D2009019DC000C
:101F0000101AE600801AF000001BFA00801B040182
:101F1000F01B0E01701C1801F01C2201601D2C0129
:101F2000E01D3601501E4001D01E4A01401F5401E1
:101F3000B01F5E0130206801A020720110217C01D9
:101F400090218601002290016026F401902A580217
:101F5000802EBC0250322003E03584035039E80360
:101F6000803C4C0424F4D43050C38E20C2A24017CD
:101F7000828B7011127A910D816CD90AA861E108E7
:101F8000C7586607615143061E4B5D05C145A7044E
:101F90001A411104093D9803713931034036DB02BF
:101FA00065339102D4305402802E1D02632CEE0161
:101FB000752AC501B028A001102781018F25640171
:101FC0002B244B01E0223401AC211F018D200D0197
:101FD000801FFC00841EED00971DDF00B81CD2009E
:101FE000E61BC600201BBC00641AB200B219A80090
:101FF0000A19A0006A189900D117910040178B00A8
:10200000B516840031167E00B31579003A157300B9
:10201000C7146F0058146A00EE136600881363003B
:1020200025135E00C7125B006C1257001512540096
:10203000C111510070114F0021114B00D610490001
:102040008D1047004610440002104200C00F4000AF
:10205000800F3E00420F3C00060F3B00CB0E3800C5
:10206000930E37005C0E3500270E3400F30D32005E
:10207000C10D3100900D3000600D2E00320D2D008D
:10208000050D2C00D90C2B00AE0C2900850C290065
:102090005C0C2700350C27000E0C2600E80B2400F2
:1020A000C40B2400A00B23007D0B23005A0B21003E
:1020B000390B2100180B2000F80A1F00D90A1E0056
:1020C000BB0A1E009D0A1D00800A1D00630A1C0039
:1020D000470A1B002C0A1B00110A1A00F7091A00F4
:1020E000DD091900C4091900AB091900920917008C
:1020F0007B091800630917004C0916003609160001
:10210000200916000A091500F5081500E00814005A
:10211000CC081400B8081400A40814009008130098
:102120007D0812006B0813005808120046081200C0
:1021300034081100230811001208110001081100D1
:10214000F0071000E0071000D0071000C0071000D3
:10215000B0070F00A107100091070E0083070F00C2
:1021600074070F0065070E0057070E0049070E00A1
:102170003B070D002E070E0020070D0013070D0072
:1021800006070D00F9060C00ED060D00E0060C0038
:10219000D4060C00C8060C00BC060C00B0060C00EF
:1021A000A4060B0099060C008D060B0082060B009E
:1021B00077060B006C060B0061060A0057060B0041
:1021C0004C060A0042060A0038060A002E060A00DB
:1021D00024060A001A060A001006090007060A006B
:1021E000FD050900F4050900EB050900E2050900F9
:1021F000D9050900D0050900C7050900BE05090079
:10220000B5050800AD050800A50509009C050800F6
:10221000940508008C050800840508007C0508006A
:10222000740508006C050700650508005D050700DA
:10223000560508004E050700470507004005080041
:1022400038050700310507002A05070023050700A8
:102250001C050600160507000F0507000805060007
:1022600002050700FB040600F5040700EE04060063
:10227000E8040600E2040700DB040600D5040600BB
:10228000CF040600C9040600C3040600BD0406000E
:10229000B7040600B1040500AC040600A60406005D
:1022A000A00405009B0406009504050090040600A8
:1022B0008A04050085040500800406007A040500F0
:1022C00075040500700405006B0405006604050034
:1022D000610405005C040500570405005204050074
:1022E0004D04050048040500430405003E040400B5
:1022F0003A04050035040500300404002C040500F0
:1023000027040400230405001E0404001A0404002A
:1023100016040500110404000D040400090405005E
:102320000404040000040400FC030400F803040097
:10233000F4030400F0030400EC030400E8030400C9
:10234000E4030400E0030400DC030400D8030400F9
:10235000D4030400D0030400CC030400C80303002A
:10236000C503030024F404D9201BC40C5C0E98049C
:10237000C4095F0265077101F405F900FB04B300AD
:1023800048048700C1036900580355000303450052
:10239000BE023A008402310053022A0029022500BD
:1023A00004022000E4011C00C8011900AF0117005D
:1023B00098011400840113007101100061011000E4
:1023C00051010E0043010D0036010B002B010B00E3
:1023D00020010B00150109000C0109000301080090
:1023E000FB000800F3000800EB000700E400060013
:1023F000DE000600D8000600D2000600CC00050072
:10240000C7000500C2000500BD000400B9000400BB
:10241000B5000400B1000400AD000400A9000400F0
:10242000A5000300A20003009F0004009B0003001E
:102430009800030095000200930003009000030041
:102440008D0002008B00030088000200860002005D
:1024500084000300810002007F0002007D00020072
:102460007B00020079000200770001007600020084
:102470007400020072000100710002006F0002008F
:102480006D0001006C0002006A000100690002009A
:1024900067000100660001006500010064000200A1
:1024A0006200010061000100600001005F000200A5
:1024B0005D0001005C0001005B0001005A000100AA
:1024C00059000100580001005700010056000100AA
:1024D00055000100540001005300000053000100AA
:1024E0005200010051000100500001004F000100A6
:1024F0004E0000004E0001004D0001004C000100A4
:102500004B0000004B0001004A000100490001009F
:10251000480000004800010047000100460000009C
:102520004600010045000000450001004400010094
:10253000430000004300010042000000420001008F
:102540004100000041000100400001003F00000088
:102550003F0001003E0000003E0001003D00000081
:102560003D0001003C0000003C0000003C00010078
:102570003B0000003B0001003A0000003A0001006F
:102580003900000039000100380000003800000068
:10259000380001003700000037000100360000005D
:1025A0003600000036000100350000003500000054
:1025B0003500010034000000340000003400010048
:1025C000330000003300000033000100320000003F
:1025D0003200000032000100310000003100000034
:1025E0003100010030000000300000003000010028
:1025F0002F0000002F0000002F0000002F0001001E
:102600002E0000002E0000002E0001002D00000012
:102610002D0000002D0000002D0001002C00000006
:102620002C0000002C0000002C0001002B000000FA
:102630002B0000002B0000002B0001002A000000EE
:102640002A0000002A0000002A00010029000000E2
:1026500029000000290000002900000029000100D5
:1026600028000000280000002800000028000000CA
:1026700028000100270000002700000027000000BC
:1026800027000000270001002600000026000000AF
:1026900026000000260000002600010025000000A2
:1026A0002500000025000000250000002500000096
:1026B0002500010024000000240000002400000088
:1026C000240000002400010023000000230000007B
:1026D000230000002300000023000000230000006E
:1026E0002300010022000000220000002200000060
:1026F0002200000022000000220001002100000052
:102700002100000021000000210000002100000045
:102710002100000021000100200000002000000036
:102720002000000020000000200000002000000029
:1027300020000000200001001F0000001F0000001A
:102740001F0000001F0000001F0000001F0000000D
:102750001F0001001E0000001E0000001E000000FF
:102760001E000000393000003325000087190000EA
:10277000B00F0000DB080000BD0400007402000080
:102780003F010000554E4C4F41442046494C414DBD
:10279000454E540046494C414D454E542043484116
:1027A0004E474500436F6E66696775726174696F65
:1027B0006E004D37303220542564004D36303020C5
:1027C000423020542564004D373032203B256400D0
:1027D0004D37303120542564004368616E676520B1
:1027E00046696C616D656E740050726568656174F0
:1027F00020437573746F6D004D36303020423020A9
:10280000542569004368616E67652046696C616D97
:10281000656E74202A00436F6E74696E7565005092
:1028200075726765206D6F726500524553554D4551
:10283000204F5054494F4E533A005052494E542065
:102840005041555345440020204E6F7A7A6C653ACA
:10285000200053746F70004368616E6765204D659A
:10286000646961004D323100526573756D652050A9
:1028700072696E74004E6F204D6564696100547515
:102880006E650053746F70205072696E74005061F1
:10289000757365205072696E7400496E666F2053BF
:1028A000637265656E005061726B696E672E2E2EC5
:1028B0000000005761697420666F720066696C6180
:1028C0006D656E74206368616E676500746F207358
:1028D00074617274005761697420666F7200666972
:1028E0006C616D656E7420756E6C6F616400004E76
:1028F0006F7A7A6C652068656174696E6700506CE8
:102900006561736520776169742E2E2E0000507208
:1029100065737320627574746F6E00746F206865E0
:102920006174206E6F7A7A6C650000496E7365720F
:10293000742066696C616D656E7400616E642070F0
:102940007265737320627574746F6E00746F2063A8
:102950006F6E74696E7565005761697420666F7279
:102960000066696C616D656E74206C6F6164000057
:10297000507265737320427574746F6E00746F20AB
:10298000726573756D65207072696E7400005761B1
:10299000697420666F72207072696E7400746F20A3
:1029A000726573756D652E2E2E0000576169742057
:1029B000666F720066696C616D656E742070757209
:1029C0006765000050726F62652059204F6666731C
:1029D00065740050726F62652058204F666673659B
:1029E0007400452073746570732F6D6D005A205309
:1029F000746570732F6D6D00592053746570732F5B
:102A00006D6D00582053746570732F6D6D00496EA5
:102A10006974004D3432380050726F6265204F6621
:102A20006673657473004A756E6374696F6E2044D3
:102A3000657600416363656C65726174696F6E00F1
:102A400056656C6F636974790053657420486F6DC7
:102A500065204F666673657473004E657874204315
:102A60006F726E657200446F6E65004E657874001B
:102A7000486F6D696E672058595A002053697A650E
:102A80003A200043616E6E6F74206F70656E207324
:102A900075626469722000534420496E697420464F
:102AA00061696C0053442063617264206F6B0A009B
:102AB0006F70656E526F6F74206661696C65640A31
:102AC00000766F6C756D652E696E6974206661693C
:102AD0006C65640A004E6F20534420636172640A7F
:102AE000004D3234004D3233202573006F70656E17
:102AF000206661696C65642C2046696C653A20002B
:102B000046696C652073656C65637465640A00468C
:102B1000696C65206F70656E65643A2000454E44AF
:102B200020535542524F5554494E450A00222070B9
:102B30006F73002220706172656E743A22005355E3
:102B400042524F5554494E452043414C4C207461EC
:102B5000726765743A220053756263616C6C204F32
:102B6000766572666C6F7700457863656564656449
:102B7000206D617820535542524F5554494E45209F
:102B800064657074683A310A0057726974696E67D7
:102B900020746F2066696C653A2000667265736800
:102BA00000646F696E67004E6F772000000021009F
:102BB000240027002A002D0030003300010100000E
:102BC000040107010A016F70656E005452494747BE
:102BD00045524544007A5F6D696E00795F6D696E9C
:102BE00000785F6D696E005265706F7274696E6710
:102BF00020656E6473746F70207374617475730AEA
:102C000000486F6D65202573257325732046697212
:102C1000737400486F6D696E67204661696C656406
:102C2000000000964300006B43000096437C3C3E4E
:102C30005E2B3D3F2F5B5D3B2C2A225C0050726F68
:102C400062696E6720506F696E7400255320256994
:102C50002F25690050726F62696E67206D65736819
:102C600020706F696E742000202844525952554ECE
:102C70002900473239204175746F20426564204C29
:102C80006576656C696E67003F20284C2C522C4697
:102C90002C4229206F7574206F6620626F756E64F8
:102CA000732E0A003F2856296572626F7365206C87
:102CB0006576656C20696D706C61757369626C65B1
:102CC0002028302D34292E0A00426164205A2076B3
:102CD000616C75650A004E6F2062696C696E656192
:102CE0007220677269640A00446576696174696F6D
:102CF0006E0025533A2025730046696E6973686536
:102D000064210A003A207A3A2000206F66200047AA
:102D10006F696E6720746F3A20580043570A00208D
:102D20006469723A0020616E676C653A00537461A1
:102D30007274207261646975733A004D34382050A2
:102D40006F696E740025533A2025642F2564005066
:102D50006F736974696F6E696E672074686520703F
:102D6000726F62652E2E2E0A003F4C656773206FCE
:102D700066206D6F76656D656E7420696D706C612F
:102D8000757369626C652028302D3135292E0A0053
:102D90003F2028582C5929206F7574206F662062B7
:102DA0006F756E64732E0A0050726F6265206F75C6
:102DB00074206F6620626F756E6473003F53616D9F
:102DC000706C652073697A65206E6F7420706C6119
:102DD000757369626C652028342D3530292E0A0000
:102DE0004D3438205A2D50726F62652052657065DF
:102DF00061746162696C69747920546573740A0046
:102E00005374616E646172642044657669617469AB
:102E10006F6E3A20002052616E67653A20002053A1
:102E200069676D613A20004D65616E3A200020743B
:102E30006F6F206C6F6E6720657874727573696F41
:102E40006E2070726576656E7465640A0020636F2B
:102E50006C6420657874727573696F6E207072652A
:102E600076656E7465640A00DB0FC93F45BCDA3FC6
:102E70008FB30240FCF0274056946140FE4B9B40CC
:102E800084A5D840E0231841346A5641E859974157
:102E900064DBD5416E271742B4B75542CE1A97422C
:102EA000C8AED542B5885A43D40684BFA65FA7BF33
:102EB0007443E0BF10B11AC01C2C58C0E8F697C08C
:102EC000B849D6C04E4E17C124D355C1802497C1EE
:102ED000A0B5D5C1121A17C244AE55C2781797C211
:102EE0006CACD5C267885AC3496E7365727420662C
:102EF000696C616D656E7420616E642070726573BB
:102F00007320627574746F6E0A005072696E74205B
:102F100050617573656400220A00556E6B6E6F77A1
:102F20006E20636F6D6D616E643A202200426967A6
:102F3000426F78204475616C2052656164792E007F
:102F40005072696E74696E672E2E2E0020453A000D
:102F5000205A3A0020593A00504944204175746F74
:102F600074756E65202A0020082046616374002075
:102F700008204D6178002008204D696E004175746D
:102F80006F74656D70005654726176204D696E00E5
:102F9000566D696E00566D6178204500566D6178FA
:102FA000205A00566D6178205900566D617820587E
:102FB00000416D6178204500416D6178205A0041E3
:102FC0006D6178205900416D6178205800412D5481
:102FD000726176656C00412D526574726163740094
:102FE000416363656C001FE020102310249010A043
:102FF00011202210241037B00840048003001FE085
:103000002010211023101520112021102110313003
:103010000840048003001FE03FF03CF03B701F605D
:103020001EE03DF03BF038700FC0078003001FE04A
:103030003FF03EF03CF01AE01EE03EF03EF03EF085
:103040000FC007800300FE2FE62F2E3016303FFF03
:10305000F038007030FC3020FC1020781020301048
:103060002C00D02E31D02F7BD02F7BD02E31D02CE6
:1030700000D020301020781020FC1030FC303800B8
:10308000703FFFF03FFFF03800703186302387102B
:103090002787902F87D02F03D02030102078102042
:1030A00078102030102F03D02F87D02787902387C8
:1030B000103186303800703FFFF01FFFF81FFFF817
:1030C000041040020820020820041040082080104C
:1030D00041001041000820800410400000001FFF44
:1030E000F81FFFF82568753A2530326875002568A5
:1030F00075642025303268753A25303268750020B5
:1031000020202020202000000018C2000000000025
:1031100000000000004842000048420000804002D9
:1031200002040000A0400000A04000000040000099
:10313000A94300006B4300009643FFFFFF0000001F
:1031400001000000010000800055555500000040BE
:103150000033333300AAAA2A004992240000002039
:1031600000C7711C0099991900D1451700555515D4
:10317000003BB1130024491200111111000000108E
:10318000000F0F0F00E3380E0043790D00CCCC0C7C
:1031900000C3300C00E8A20B0064210B00AAAA0AAD
:1031A00000703D0A009DD80900427B090092240965
:1031B00000DCD308008888080010420800000008DE
:1031C00000F0C107008787070075500700711C07D2
:1031D000003EEB0600A1BC0600699006006666068C
:1031E00000703E06006118060017F4050074D10552
:1031F000005BB00500B290050062720500555505F0
:103200000078390500B81E0500050505004EEC04E0
:103210000087D40400A1BD040090A70400499204D3
:1032200000C17D0400EE690400C756040044440454
:10323000005C320400082104004110040000000476
:10324000003FF00300F8E0030026D20300C3C303ED
:1032500000CCB503003AA803000A9B0300388E0394
:1032600000C08103009F750300D0690300505E0316
:10327000001D53030034480300913D030033330322
:103280000016290300381F030097150300300C03B4
:1032900000030303000BFA020049F10200BAE8023E
:1032A000005CE002002DD802002DD0020059C802B7
:1032B00000B0C0020031B90200DAB10200AAAA02CD
:1032C00000A0A30200BC9C0200FA9502005C8F02E1
:1032D00000DF88020082820200457C02002776021D
:1032E0000027700200436A02007C640200D05E0284
:1032F000003F590200C8530200FFFDFCFAF8F6F443
:10330000F2F0EEECEAE9E7E5E3E1E0DEDCDAD9D77A
:10331000D5D4D2D0CFCDCBCAC8C7C5C3C2C0BFBD1C
:10332000BCBAB9B7B6B4B3B2B0AFADACAAA9A8A68F
:10333000A5A4A2A1A09E9D9C9A99989795949392DA
:10334000908F8E8D8B8A8988878684838281807F07
:103350007E7D7B7A797877767574737271706F6E13
:103360006D6C6B6A696867666564636261605F5E05
:103370005D5C5B5A595858575655545352515050EA
:103380004F4E4D4C4B4A4A494847464645444342B6
:103390004241403F3E3E3D3C3B3B3A393838373670
:1033A0003535343332323130302F2E2E2D2C2B2B1D
:1033B0002A292928272726252524232322212120BD
:1033C000201F1E1E1D1C1C1B1B1A1919181817164E
:1033D00016151514131312121111100F0F0E0E0DD6
:1033E0000D0C0C0B0A0A0909080807070606050553
:1033F0000404030302020100005761726E696E67E4
:103400003A20486F6D696E672042756D702044697F
:103410007669736F72203C20310A005072696E74B5
:103420002066726F6D204D6564696100205A3A20F4
:103430000020593A200042656420583A200050721A
:103440006F62696E67204661696C65640A0050723C
:103450006F62696E67204661696C656400000022D6
:1034600000250028002B002E00310034000201004E
:1034700000050108010B01050505050705080808F9
:1034800008020202020A0A080804040404010101F5
:1034900001010101010303030303030303040707FD
:1034A000070C0C0C0C0C0C0C0C020202020606069B
:1034B00006060606060B0B0B0B0B0B0B0B01021083
:1034C000202008081020401020408002010201083E
:1034D00004020101020408102040808040201008EE
:1034E0000402018004020180402010080402010847
:1034F00004020101020408102040800102040810A7
:1035000020408000000A0B02090C0D0E080703047E
:1035100001000000000000000000000000000000AA
:103520000000000000000000000000000000001289
:10353000111000000000000000000000000000006A
:10354000000000000000000000486F74656E6420F9
:103550006F6666736574733A002052004861726446
:10356000636F6465642044656661756C742053659F
:103570007474696E6773204C6F616465640A003B04
:10358000200020204D3630332000546F6F6C2D63A7
:1035900068616E67696E673A005431204C002055AF
:1035A000005430204C0046696C616D656E74206C6F
:1035B0006F61642F756E6C6F6164206C656E6774EB
:1035C00068733A0020204D3835312058005A2D506C
:1035D000726F6265204F66667365740020204D33FC
:1035E000303420500020430020204D33303120451E
:1035F000005049442073657474696E67733A002003
:10360000460020480020204D3134352053004D61C4
:1036100074657269616C2068656174757020706191
:1036200072616D65746572733A00202047323920EB
:103630005720490020204D3432302053004175740A
:103640006F20426564204C6576656C696E673A0050
:1036500020204D32313820540020204D3230362089
:103660005800486F6D65206F66667365743A002078
:103670004A0020204D323035204200416476616E90
:103680006365643A20423C6D696E5F7365676D6582
:103690006E745F74696D655F75733E20533C6D6930
:1036A0006E5F66656564726174653E20543C6D6949
:1036B0006E5F74726176656C5F6665656472617475
:1036C000653E204A3C6A756E635F6465763E002005
:1036D000204D323034205000416363656C65726167
:1036E00074696F6E2028756E6974732F7332293A6E
:1036F00020503C7072696E745F616363656C3E203C
:10370000523C726574726163745F616363656C3EA1
:1037100020543C74726176656C5F616363656C3ED6
:103720000020204D3230312058004D6178696D7590
:103730006D20416363656C65726174696F6E2028EA
:10374000756E6974732F7332293A0020204D323020
:10375000332058004D6178696D756D20666565642C
:1037600072617465732028756E6974732F73293ABA
:103770000053746570732070657220756E69743AB9
:103780000020204D32303020530020440020204DB6
:103790003230302054002044697361626C65640AE1
:1037A0000046696C616D656E742073657474696E32
:1037B00067733A0020204D3134392043203B205597
:1037C0006E69747320696E2043656C736975730A42
:1037D0000020286D6D290020204732312020202034
:1037E0003B20556E69747320696E206D6D0000007A
:1037F0001643000016430000C0400000C84100000E
:103800002043000034430000C84300005544E8034F
:103810000000E8030000640000008813000020435B
:103820006F756E7420583A0045320045310062656C
:1038300064002C2073797374656D2073746F7070DD
:10384000656421204865617465725F49443A2000CF
:1038500048656174696E67204661696C65640048FB
:10386000656174696E67206661696C65640000005B
:103870001000C90210012C01400122017001180141
:10388000B0010E01F00104015002FA00B002F00094
:103890003003E600D003DC009004D2007005C800BD
:1038A000A006BE000008B400B009AA00D00BA0001A
:1038B000600E960060118C000015820020197800BF
:1038C000C01D6E00A0226400B0275A00902C50004A
:1038D00000314600E0343C0010383200903A2800B5
:1038E000603C1E00A03D1400803E0A00203F000006
:1038F0003F00496E697469616C697A65204545507D
:10390000524F4D005072696E742041626F7274653F
:1039100064004D32350050617573696E672E2E2E2E
:1039200000454550524F4D2056657273696F6E20A9
:103930004572726F7200454550524F4D20496E647A
:103940006578204572726F7200454550524F4D2088
:10395000435243204572726F720049676E6F726501
:10396000004361703A003F5A206F7574206F6620E3
:1039700072616E67652028003F59206F7574206F53
:10398000662072616E676520282D0020746F20000C
:103990003F58206F7574206F662072616E676520D6
:1039A000282D0050726F6265204F66667365742023
:1039B00058004F46460A00466164652048656967BD
:1039C00068742000426564204C6576656C696E679A
:1039D00020004661696C656420746F20656E6162C9
:1039E0006C6520426564204C6576656C696E670A7B
:1039F00000496E76616C6964206D6573682E0A00FB
:103A000086018C0111241FBECFEFD1E2DEBFCDBFF6
:103A100000E00CBF13E0A0E0B2E0EEE7F3EA02E062
:103A20000BBF02C007900D92A636B107D9F727E168
:103A3000A6E6B3E001C01D92A439B207E1F71DE18B
:103A4000C1E0DDE100E006C021970109802FFE0101
:103A50000F94FE4DC030D10780E00807A9F70F94FE
:103A600039360D94AD510C9400002F923F924F9235
:103A70005F926F927F928F929F92AF92BF92CF92FE
:103A8000DF92EF92FF920F931F93CF93DF93CDB707
:103A9000DEB7E1970FB6F894DEBF0FBECDBF89AB9E
:103AA0002091700328AB81E0809370038091801790
:103AB0008D3409F460C3843511F40C94702D87346F
:103AC00011F00C94912D80917E1790917F178B317E
:103AD000910509F420C1B4F48430910534F48230A6
:103AE0009105DCF597FF2DC042C38531910511F496
:103AF0000C94932D8A31910509F409C1049709F0BA
:103B000036C3C6C08A32910509F451C254F48D31CE
:103B1000910509F42BC10CF419C14E9709F445C164
:103B200026C38B35910509F4BFC18C35910509F485
:103B3000C0C18A35910509F01AC310926F030C9425
:103B4000932D8091FA07813011F00C94932D0E94EF
:103B50003E950E943CBE0C94932D2091FA07213093
:103B600011F00C94932D11E0029709F010E00E94DF
:103B70003E9519821A821B821C821D821E821F8220
:103B8000188682E50E944943882309F44BC00E94AD
:103B9000C4426B017C0120E030E0A9010F9403478F
:103BA000882309F455C080915E0290915F02A09134
:103BB0006002B09161028CA39DA3AEA3BFA38091CC
:103BC000620290916302A0916402B091650288A79D
:103BD00099A7AAA7BBA78090001590900115A09067
:103BE0000215B09003154090041550900515609093
:103BF000061570900715A50194016CA17DA18EA1F9
:103C00009FA10F94034781110C949C2DA301920155
:103C100068A579A58AA59BA50F9403478823C1F0C1
:103C20000C949C2D89E40E944943882331F00E9422
:103C3000C44269837A838B839C838AE40E944943CC
:103C4000882331F00E94C4426D837E838F839887DE
:103C500020E030E0A90169817A818B819C810F94F9
:103C6000034781110C94502E20E030E0A9016D81B2
:103C70007E818F8198850F94034781110C94502E7B
:103C80000E94DC368FE396E00E94BA360C94932DA6
:103C900080E50E944943882329F00E94419B6B01E3
:103CA0007C0103C0C12CD12C760183E50E944943DD
:103CB000882361F00E94C44220E030E04AE754E4E7
:103CC0000F9469470F948C4F6B017C010F9449034B
:103CD00080911C17811105C060E085E596E00F9486
:103CE00080260F949911C60ED71EE81EF91E0F9458
:103CF0009911DC01CB018C199D09AE09BF09B7FDF3
:103D000002C00C94932D80E00E94B039F0CF0E9445
:103D1000FC440C94932D87E00E9445BD81110C94C6
:103D2000932D8CE0E4EAF2E0DE01119601900D9211
:103D30008A95E1F760E070E080E50E94B99ABE01E3
:103D40006F5F7F4F0F9432250C94932D8091C8059F
:103D50008770873011F00C94632E60E08FE40E942E
:103D6000654381110C94932D0C94632E0F9499113B
:103D7000609348057093490580934A0590934B05DD
:103D800087E00E9445BD81110C94932D80916305BD
:103D9000882311F40C947C2F60E08FE40E9465432B
:103DA00081110C94932D0C947C2F2091121530913D
:103DB0001315409114155091151560915E02709184
:103DC0005F0280916002909161020F94194EAB01E5
:103DD000BC0188E50E94CC5569837A838B839C83E0
:103DE00020911615309117154091181550911915FD
:103DF0006091620270916302809164029091650209
:103E00000F94194EAB01BC0189E50E94CC556D831E
:103E10007E838F839887BE016B5F7F4FCE010196B3
:103E20000F94AA31882311F40C94932D80E00E9402
:103E3000AE440E94BEC161E085E40E946543182F34
:103E400021E0482FBE016B5F7F4FCE0101960F949A
:103E50000D0A6B017C019B01AC010F940B51811188
:103E600019C049815A816B817C8186E394E30E9469
:103E700078394D815E816F81788581E394E30E947A
:103E80007839B701A6018CE294E30E9478398AE080
:103E90000E94B3360E94A5C1113011F40E94C1D115
:103EA0000E9428C40C94932D8FE080936F030C9490
:103EB000932DB0EB2B2EB2E03B2E10ECE12E14E153
:103EC000F12EAEE5B2E0BDA3ACA304E0C02E0FE03E
:103ED000D02E00E010E0F10181911F010E944943C2
:103EE000882309F44AC00E94C4422B013C011330CC
:103EF00049F0D6012D913D914D915C910F94184E52
:103F00002B013C01ECA1FDA1208131814281538133
:103F1000C301B2010F94184E4B015C012DEB37E346
:103F200046E855EB0F94795087FD0AC02DEB37E337
:103F300046E855E3C501B4010F9403471816ECF4A5
:103F4000133051F440926A0250926B0260926C02FC
:103F500070926D0201E011C0A5019401D7016D912D
:103F60007D918D919C910F94194EF701608371831F
:103F700082839383812F0F94E2081F5FF4E0EF0E9A
:103F8000F11C2CA13DA12C5F3F4F3DA32CA334E09D
:103F9000C30ED11C143009F09ECF002321F08AE615
:103FA00092E00F9459070E9428C40C94932D80919D
:103FB000FA07813011F00C94932D89E40E94494353
:103FC000E82E882321F00E94C042082F01C000E0A3
:103FD0008AE40E944943F82E882321F00E94C042BF
:103FE000182F01C010E0EE2011F0063020F4FF2061
:103FF00041F0143030F081E896E00E94BA360C941B
:10400000932D80E1EEE5F2E0A0E0B5E101900D92A4
:104010008A95E1F7EE2019F1602F000F770B880BDE
:10402000990B0F940A472091241530912515409142
:104030002615509127150F9469472091E604309179
:10404000E7044091E8045091E9040F94194E6093FD
:104050000015709301158093021590930315FF20AE
:1040600019F1612F110F770B880B990B0F940A47E9
:10407000209128153091291540912A1550912B1522
:104080000F9469472091EA043091EB044091EC04CD
:104090005091ED040F94194E60930415709305151B
:1040A000809306159093071560E080E50E946543B4
:1040B0008823C1F1EE20D1F0209112153091131513
:1040C00040911415509115156091001570910115CE
:1040D00080910215909103150F94184E609300156E
:1040E000709301158093021590930315FF20D1F072
:1040F00020911615309117154091181550911915EA
:104100006091041570910515809106159091071521
:104110000F94184E6093041570930515809306153F
:104120009093071540E050E0BA0186E40E94CC5518
:104130006B017C0120E030E0A9010F947950181642
:104140004CF420E030E040E752E4C701B6010F94A0
:10415000134F03C060E070E0CB0169837A838B83E7
:104160009C83CE0101960E94DDC10C94932D0E9488
:1041700015F20C94932D80917E1790917F178737BD
:10418000910509F4B8C70CF0E8C08D34910509F425
:104190005CC40CF05DC08931910509F489C21CF53D
:1041A0008431910509F424C27CF48131910509F42C
:1041B0000BC22CF4029708F4CFC10C946D2D4297DA
:1041C00009F4F2C50C946D2D8631910509F445C2B0
:1041D0000CF43FC28731910509F449C2489709F4AC
:1041E0005BC20C946D2D8E31910509F4D7C2ACF4ED
:1041F0008B31910509F477C20CF467C28C319105BB
:1042000009F4C4C24D9711F00C946D2D80914D139B
:104210008E7F80934D130C94932D8033910509F478
:104220000CC44CF48F31910509F45CC3809709F4F8
:1042300016C30C946D2D8B34910509F402C48C3493
:10424000910511F00C946D2D0E946EC50C94932D68
:104250008B36910509F4A4C40CF043C08535910553
:1042600009F4D8C54CF58235910509F48FC5D4F40D
:104270008135910511F00C946D2D0E944E890E949C
:1042800083C50F945A030E94733668EE73E080E092
:1042900090E00E94D03560E088EA97E00F94802695
:1042A0000C94932D8335910509F477C584359105D8
:1042B00009F47AC50C946D2D8836910509F4C9C3AB
:1042C00034F48C35910509F4C8C50C946D2D8936EC
:1042D000910509F410C48A36910509F420C40C94A0
:1042E0006D2D8037910509F4BFC484F48D36910596
:1042F00009F4D7C30CF4B3C48E36910509F459C43C
:104300008F36910509F466C40C946D2D83379105A1
:1043100009F42DC68CF48137910509F4B0C48237B5
:10432000910511F00C946D2D0E9424F18CEC91E11B
:104330000F9468200C94932D8537910509F499C644
:104340008637910511F00C946D2D00917C1710911A
:104350007D1794E0F12C40E0B2C68E32A1E09A07BE
:1043600011F40C94762B0CF06AC08C3C910509F486
:10437000EBC754F58B39910509F4E2C484F489370D
:10438000910509F4C3C60CF4B9C68C38910509F43B
:1043900098C48139910509F4C0C60C946D2D883CF0
:1043A000910509F42EC734F48E3B910509F4A8C495
:1043B0000C946D2D893C910509F484C78B3C9105C3
:1043C00009F4A3C70C946D2D8A3D910511F40C944A
:1043D000172A9CF48E3C910511F40C94E3290CF4FB
:1043E000E4C7833D910511F40C94012A893D9105A0
:1043F00011F40C94042A0C946D2D8232E1E09E0796
:1044000011F40C94972A64F48C3D910511F40C94EA
:104410001A2A8D3D910511F40C94412A0C946D2DAE
:104420008C3221E0920711F40C94EE2A8D329140E7
:1044300011F00C946D2D0E947B9C0C94932D853F64
:10444000A1E09A0711F40C949A2C0CF046C0823922
:10445000E1E09E0711F40C94C02BDCF4803321E0E2
:10446000920711F40C94032B14F40C94BA2B80399A
:10447000A1E09A0711F40C94BD2B8139914011F001
:104480000C946D2D81E00E94ADDA0E9428C40C943A
:10449000932D853AE1E09E0711F40C94C72B74F438
:1044A0008A3921E0920709F4E7C3843A914011F078
:1044B0000C946D2D0F9466330C94932D8C3AA1E0DF
:1044C0009A0711F40C943B2C843F914011F00C940A
:1044D0006D2D0E9435740C94932D8835E2E09E0773
:1044E00011F40C94C72CB4F4873F21E0920711F427
:1044F0000C94A02C14F40C949D2C883FA1E09A07F6
:1045000011F40C94A92C8C30924011F40C94BA2C18
:104510000C946D2D803AE3E09E0709F4D5C17CF43C
:104520008B3522E0920711F40C94CA2C833593400A
:1045300011F00C946D2D0F94552A0C94932D873EF9
:10454000A3E09A0711F40C94452D893E934011F491
:104550000C94532D0C946D2D80E50E9449438823C3
:1045600029F00E94419B6B017C0103C0C12CD12C1E
:10457000760183E50E944943882361F00E94C4428A
:1045800020E030E04AE754E40F9469470F948C4FE1
:104590006B017C010F94490380917C1790917D17EA
:1045A000009721F061E00F94102705C060E08AE9D0
:1045B00096E00F94802640E0C701B6010E940B3FB1
:1045C0000E9489F10C94932D8091811784FF02C081
:1045D0000C947F2F8091831787FF02C00C947F2F4C
:1045E00080918417837011F00C947F2F0C94A12F6D
:1045F00080914D1383FF25C085EC96E00E94BA366A
:1046000080914D1383FF17C08DE791E10E942BCB62
:104610008BE1EDE7F1E1DE01119601900D928A95B3
:10462000E1F760E070E0CE0101960E9426BCCE0169
:1046300001960E945CCE86EB96E00E94BA360C94FE
:10464000932D0E94E03686ED96E00E94BA360C94D7
:10465000932D0E9428B90C94932D0E9469B88091E3
:104660004D13877F806280934D130C94932DE091BE
:104670007C17F0917D178081882329F0803209F41E
:1046800010823196F8CF60E080917C1790917D1771
:104690000E940DBB0C94932D0E944F36882321F06D
:1046A0000E947AB80E944AC50E9489F10C94932D09
:1046B00080914D1382FF03C08B7F80934D130E9426
:1046C0006EC50E9489F10C94932D80914D1383FD4A
:1046D00002C00C94932D83E50E94494381110C94F0
:1046E000B42F0C94932D83E40E94FB42882319F18C
:1046F0008AEE96E00E94BA3680912711882391F0C5
:10470000BE016F5F7F4F84E291E10E94ECCD8E018C
:104710000F5F1F4FF80181918F01882339F00E94AC
:10472000B336F8CF80EE96E00E94BA368AE00E9457
:10473000B3360C94932D80914D1382FF21C089EFE5
:1047400096E00E94BA366091491370914A138091A5
:104750004B1390914C134AE00E94C4378FE20E94A1
:10476000B336609145137091461380914713909131
:1047700048134AE00E94C4370E9489390C94932D53
:104780008BE097E00E94BA360C94932D80917C17B1
:1047900090917D170E94C5BA0C94932D80914D1372
:1047A00083FD02C00C94932D0E94FEF180914D1365
:1047B00083FD02C00C94932D40917C1750917D177E
:1047C000BE01645E7F4F80E00E94D6EF8C010097AF
:1047D00011F40C94932D6C8D7D8D19821C8222E036
:1047E000AC01CE0101960E9451D0811102C0F12C82
:1047F00014C0CE0101960E9444EF8823C1F361E00A
:10480000CE0101960E94D0CD009789F325EEDC0100
:104810002C931C820E944EC8F82ECE0101960E9455
:104820005CCEB801FF2089F084E397E00E94C9368E
:104830008AE00E94B3361092491310924A131092E4
:104840004B1310924C130C94932D8CE197E00E9423
:10485000C9368DED9DE20E94BA360C94932D80915D
:104860004D1382FD0F94490380914D1383FD02C0C7
:104870000C94932D60E080E50E946543182F682F0B
:1048800080917C1790917D170E940DBB83E50E945B
:104890004943882381F00E948C42AB01BC014093C4
:1048A000491350934A1360934B1370934C1384E253
:1048B00091E10E9494CA0E947AB811110C94932D30
:1048C0000E944AC50C94932D20917C1730917D173E
:1048D00090914D13926090934D13C9010E94C5BAF7
:1048E0000C94932D0E94FBC47B018C0120E831E5E0
:1048F00041E050E00F94594DC9016DE671E00F940D
:10490000D64D4B015C01C801B70120E13EE040E01B
:1049100050E00F94594DCA01B90128E130E040E060
:1049200050E00F94594D762E672EC62ED72EACE34D
:104930002A2E312C412C512CC801B701A201910122
:104940000F94594DF62EE72ECA01B901A20191012B
:104950000F94594DCB018E010F5F1F4F81149104AD
:1049600099F0EF92FF927F936F936F927F92BF9235
:10497000AF929F928F9282E497E09F938F931F93C1
:104980000F930F949B4613C0A114B104B1F0EF92A2
:10499000FF927F936F936F927F92BF92AF9286E464
:1049A00097E09F938F931F930F930F949B460FB69F
:1049B000F894DEBF0FBECDBF30C0CD2879F0EF92A6
:1049C000FF927F936F936F927F928AE497E09F9319
:1049D0008F931F930F930F949B46E9CF892B69F018
:1049E000EF92FF927F936F938EE497E09F938F9364
:1049F0001F930F930F949B46DACFEF92FF9282E5BD
:104A000097E09F938F931F930F930F949B460F9064
:104A10000F900F900F900F900F9060E0C8010F94CF
:104A200010270E94E036B80186E597E00E94C9365B
:104A30008AE00E94B3360C94932D0E94DED10C9430
:104A4000932D0E944AC50C94932D0E9483C50C940B
:104A5000932D8091C40E83FF02C00C94932D0E946D
:104A6000EF95182F87FF02C00C94932D89E40E94C4
:104A70004943882311F40C94C52F0E949C4290E076
:104A80001816190614F481E090E026E0289FF00142
:104A9000299FF00D1124E45CFA4E808191810C94E1
:104AA000CF2F8091C40E83FF02C00C94932D0E94DF
:104AB000EF95182F87FF02C00C94932D89E40E9474
:104AC0004943F82E882311F40C94D92F0E949C425C
:104AD00090E01816190614F481E090E026E0289F73
:104AE000F001299FF00D1124E45CFA4E8081918140
:104AF00000E00C94E92F0E94EF95182F87FD0AC063
:104B00008CEC9FE00E94BA36812F0E9402838AE0DB
:104B10000E94B336F8A9F09370030C94D83160E08A
:104B200080E50F945A3381110C94932D81E40E94F7
:104B3000FB42882349F0E091D70EF0E0EE5FF64F9C
:104B40006081062F10E002C00FEF10E089E40E94A0
:104B50004943882399F00E949C4290E01816190658
:104B600014F481E090E026E0289FF001299FF00DE9
:104B70001124E45CFA4E0481158108C083E50E948B
:104B80004943882319F00E948C428B01B8010F3FE2
:104B9000110519F010F06FEF70E060930209C3C7C0
:104BA00060E080E50F945A338111BDC7109202096D
:104BB000BAC78EE40E944943882309F4B4C70E940F
:104BC0008C426093D4047093D5048093D604909360
:104BD000D704A9C783E50E94FB42882331F060E037
:104BE00083E50F945A338093C40E0E94E0368EE61C
:104BF00097E00E94BA368091C40E882369F1FBEEDB
:104C0000EF2EFAE0FF2E00E010E020E08091C40ECD
:104C100090E0A0E0B0E0002E04C0B695A79597956F
:104C200087950A94D2F780FF0EC0DD24D394D20E6C
:104C3000222319F08CE20E94B336F70185919491FA
:104C40000E94BA362D2D0F5F1F4F32E0E30EF11C8C
:104C500005301105D9F66ACD8AE697E065CD109248
:104C60004817109243025FC741E060E070E085E7BB
:104C700097E00E94E43657C70E942A3654C783E55E
:104C80000E944943882371F00E949C42282F30E003
:104C90002D3331051CF48093000245C78CE38093CB
:104CA000000241C70E94E0364091000250E060E0FF
:104CB00070E083E897E00E9431388AE00E94B336C2
:104CC00032C78091C40E83FD2EC789E40E944943F8
:104CD000882311F40C9443300E949C4290E01816F3
:104CE000190614F481E090E026E0289FF001299F46
:104CF000F00D1124E45CFA4E828193810C944E30C5
:104D00008091C40E83FD0FC789E40E944943882324
:104D100011F40C9455300E949C4290E0181619062C
:104D200014F481E090E026E0289FF001299FF00D27
:104D30001124E45CFA4E8281938110E00C94663079
:104D400083E50E944943882309F4EDC60E949C42F2
:104D5000182F90E0CD970CF01CE310936A030F948A
:104D600099116B017C01212F30E0A8EEB3E00F9484
:104D7000AD4DC60ED71EE81EF91EC0926603D09236
:104D80006703E0926803F0926903CDC680916F03D8
:104D90008F7D806180936F03C6C680916F038F7E85
:104DA000806280936F03BFC683E50E9449438823D6
:104DB000E9F00F9499116093480570934905809329
:104DC0004A0590934B050E94C44220E030E04AE738
:104DD00054E40F9469470F948C4F609301027093D1
:104DE000020280930302909304029DC68091811772
:104DF00084FF02C00C948F308091831787FF02C01C
:104E00000C948F3080918417837011F00C948F3044
:104E10000C94C53083E50E94FB42882309F483C6C5
:104E20000F949911609348057093490580934A0542
:104E300090934B050E94C44220E030E04AE754E4DE
:104E40000F9469470F948C4F60936B0370936C03BE
:104E500080936D0390936E0366C60E94EF9587FD65
:104E600062C69091811794FD04C09091831797FFBB
:104E70000AC070EBC72E72E0D72EE4E6EE2EE5E016
:104E8000FE2E10E009C090918417937091F7682F5F
:104E900081E00E94409C47C6D6018D916D010E9421
:104EA0004943882309F459C0133009F04FC00E94C8
:104EB000C4424B015C0120E030E040EA51E40F9431
:104EC000034787FF3AC0A501940160918405709162
:104ED000850580918605909187050F94134F2B01CE
:104EE0003C019B01AC016091940570919505809106
:104EF0009605909197050F94694760939405709378
:104F0000950580939605909397056091F6087091AA
:104F1000F7088091F8089091F9080F940847A301C9
:104F200092010F9469470F948C4F6093F608709329
:104F3000F7088093F8089093F9088092840590927E
:104F40008505A0928605B092870507C00E94C442DD
:104F5000F701648B758B868B978B1F5FF4E0EF0EE8
:104F6000F11C143009F098CF0F942503DCC584E0C0
:104F700099E00E94BA3660E084EF98E00F94023125
:104F800060E08FED98E00F94023161E08DEF98E3DF
:104F90000F94023161E084ED98E00F94023161E0FA
:104FA00084EC98E00F94023160E08BEB98E00F9472
:104FB000023161E081EB98E00F94023161E087EA11
:104FC00098E00F94023160E080EA98E00F9402319B
:104FD00061E088E998E00F94023161E08AE898E0A6
:104FE0000F94023160E08CE798E00F94023160E0AA
:104FF0008DE698E00F94023160E08FE598E00F9421
:10500000023160E089E498E00F94023160E088E3C7
:1050100098E00F94023160E089E298E00F94023149
:1050200061E082E298E00F94023160E08DE098E068
:105030000F94023160E08FEF97E00F94023161E04E
:105040008CEE97E00F94023160E08FED97E00F94C3
:10505000023161E08AED97E00F94023161E08DEC5E
:1050600097E00F94023160E089EB97E00F940231F2
:105070005AC580917C1790917D17009709F414CB45
:10508000DC012C91222309F40FCB60E00F94102750
:105090004AC5F8018081282F2B7F213499F0803573
:1050A000E9F4818180538A30C8F498012E5F3F4F24
:1050B00089012F5F3F4FF80180818032C9F3915001
:1050C00041F70CC02181213349F4813421F085342A
:1050D00061F741E0EACFFF24F394E7CF41110E944A
:1050E000E036FF2021F08BED99E00E94BA36C8012E
:1050F0000E948F3918C50E94D3C415C581E08093E2
:105100002606809325060E94ECC40DC51092260643
:10511000109225060E94ECC406C560E070E083E5AD
:105120000E945643823038F00E94DC368FED99E0C1
:105130000E94BA36F8C48C01112788E40E944943C2
:105140008823E1F00E94C0428A3A910544F00E940F
:10515000C0428530914034F40E94C04205C08AEAC2
:1051600090E002C084E091E026E0209FF001219FC2
:10517000F00D1124E45CFA4E9183808382E40E9456
:1051800049438823D9F00E94C042059744F00E9409
:10519000C0428D38910534F40E94C04205C085E0BC
:1051A00090E002C08CE890E026E0209FF001219F73
:1051B000F00D1124E45CFA4E9383828386E40E940E
:1051C0004943882309F4AFC40E94C04297FD09C037
:1051D0000E94C0428F3F910509F034F40E94C04202
:1051E00005C080E090E002C08FEF90E026E0209FB5
:1051F000F001219FF00D1124E45CFA4E9583848325
:1052000092C40E94EF95182F87FD8DC40091B815A8
:1052100084E40E944943882309F4BAC70E94C44227
:105220006B017C0120E030E0A9010F940347882343
:1052300009F442C024E01202F0011124E055FA4EB4
:10524000C082D182E282F38220E030E0A901609145
:10525000B0157091B1158091B2159091B3150F945E
:10526000034781110CC080E090E0A0EEBFE3809383
:10527000B0159093B115A093B215B093B31520E07B
:1052800030E0A9016091B4157091B5158091B61503
:105290009091B7150F94034781110CC080E090E006
:1052A000A0EEBFE38093B4159093B515A093B61507
:1052B000B093B71501E06CC780E08093B8150F94E8
:1052C0005D0231C40E94EF9587FD2DC460EBE62E90
:1052D00062E0F62E04E615E0D7018D917D010E9473
:1052E000FB42882359F00E94C4420F948C4FF8016E
:1052F00060837183828393830F94DE020C5F1F4F60
:10530000F5E004371F0741F70EC40E94EF9587FDB3
:105310000AC450EBE52E52E0F52E04E615E0D70165
:105320008D917D010E94FB42882339F00E94C44286
:10533000F80164A375A386A397A30C5F1F4FF5E044
:1053400004371F0761F7EFC38091821787FD25C7D8
:10535000809183178E7009F020C740919805509175
:10536000990560919A0570919B0581E09AE00E94F1
:10537000783940919C0550919D0560919E057091F2
:105380009F0589E595E30E9478394091A0055091E9
:10539000A1056091A2057091A30583E997E30E949E
:1053A00078398AE00E94B336BEC38091811781FDAF
:1053B0003AC78091821781FD36C7809183178C7020
:1053C00009F031C7B0C349E2E42E46E0F42E10E004
:1053D00088E5810F0E94FB42882359F00E94C44255
:1053E000D7016D937D938D939C931397812F0F9489
:1053F000E2081F5FB4E0EB0EF11C133049F70C9488
:10540000D31F0E94519B8FC38AE50E944943882382
:1054100051F00E94C4426093C4057093C505809307
:10542000C6059093C70580E00E945C9D7CC30E94E6
:10543000CC9A79C383E50E944943882331F00E94C6
:10544000C04290934B0280934A02809181179091C1
:105450008217A0918317B0918417892B8A2B8B2BED
:1054600009F061C360914A0270914B0280E39AE0B7
:105470000E946B3885E20E94B3368AE00E94B33600
:1054800052C30E94EF95F82E87FD4DC383E50E941D
:1054900049430F2D0F2C000C110B882369F10E943A
:1054A000C042F801EE0FFF1FE358FD4F9183808348
:1054B000000F111F000F111FF801E45BFD4F7F016A
:1054C000BC01990F880B990B0F940A472AE037ED1E
:1054D00043E25CE30F946947F801E453FB4E2081FB
:1054E0003181428153810F946947D7016D937D9338
:1054F0008D939C93139717C30E94E03685E40E9416
:10550000B33680E38F0D0E94B336000F111FF801F0
:10551000E358FD4F6081718184E39AE00E946B380B
:1055200085E20E94B3368AE00E94B336FCC28AE567
:105530000E944943811106C083E50E9449438823A4
:1055400009F440C00E94C44220E030E040E050EC4A
:105550000F94034787FDC6C60E94C44220E030E096
:1055600040E050E40F94795018160CF4B5C60E9430
:10557000C4426B017C0184E00E9432BD811122C0D3
:1055800020918005309181054091820550918305DD
:10559000C701B6010F9469470F94854F2091D90434
:1055A0003091DA04260F371F3093DA042093D904A0
:1055B00020910B0530910C05620F731F70930C0541
:1055C00060930B058091831787FD92C680918417A5
:1055D000837009F08DC60E94E036A5C264E071E0D8
:1055E00083E50E94B99A8C0168EE73E080E50E9421
:1055F000B99A8938B3E19B0710F088E893E1B801C4
:105600000F94492690C280E50E94FB42882351F006
:105610000E94C442609357057093580580935905C2
:1056200090935A0589E40E94FB42882381F00E94EE
:10563000C4422CEA35EC47E25EE30F94694760937D
:105640005B0570935C0580935D0590935E0584E433
:105650000E94FB42882381F00E94C4422CEA35EC70
:1056600047E25EE30F94134F60935F05709360050C
:1056700080936105909362050E94E0364091570542
:10568000509158056091590570915A058BE396E049
:105690000E9478392CEA35EC47E25EE360915B05C5
:1056A00070915C0580915D0590915E050F94134F9C
:1056B000AB01BC0187E396E00E9478392CEA35EC17
:1056C00047E25EE360915F0570916005809161053E
:1056D000909162050F946947AB01BC0183E396E0AA
:1056E0000E9478398AE00E94B3361DC283E50E9489
:1056F000FB42182F882371F00E94C4420F94854FFB
:10570000709355026093540221E0672B09F020E06A
:105710002093030980E50E94FB42882359F02091E1
:10572000540230915502232B11F00E94B042809315
:105730000309F9C11111F7C10E94E03685E59AE02D
:105740000E94BA3680910309882319F083EA98E20F
:1057500002C08CE39AE00E94BA36609154027091C4
:10576000550284E49AE00E946B3880E49AE00E943B
:10577000BA36D9C10E94E355D6C10F944903D3C1AB
:105780000E94DBD10E94C1D10E9428C4CCC16FEF1E
:105790007FEF89E40E945643082F6FEF7FEF8AE482
:1057A0000E945643182F8AE50E944943811108C080
:1057B00081E50E944943D82E882309F49FC501C082
:1057C000D12CC02E81E0800F873008F04DC0912E83
:1057D00081E0810F853008F047C00E94C4422B0150
:1057E0003C01F02E07FDF12C07FF02C0F5E0CF2EA3
:1057F000812E17FD812C17FF02C0E3E09E2ECF14EF
:1058000008F491C1E82CE4E0FE9E500111249E149E
:1058100048F10E2D10E0DD2071F0F501E00FF11FD1
:10582000EE0FFF1FEE0FFF1FE85BFA4E2081318164
:105830004281538103C020E030E0A9010A0D1B1D05
:10584000000F111F000F111F085B1A4EC301B20198
:105850000F94194ED8016D937D938D939C9313975C
:10586000E394D5CFF394CBCF0E94DC3681E896E069
:105870000E94BA3658C187E00E9445BD811153C1CC
:1058800007E011E3EEE5F2E0FDA3ECA39E012F5F3C
:105890003F4F19014AE3C42E41E3D42E7901F801A8
:1058A0006591759185919491ACA1BDA18D909D90CC
:1058B000AD90BD90BDA3ACA3A50194010F94184E6B
:1058C0002B013C01F701608371838283938320E085
:1058D00030E040EA51EC0F94795087FD0AC020E097
:1058E00030E040EA51E4C301B2010F9403471816B7
:1058F0002CF4F601849118160CF407C5D7018D908D
:105900009D90AD90BD907D0120E030E040EA51ECEB
:10591000C501B4010F94795087FD01C520E030E046
:1059200040EA51E4C501B4010F94034718160CF086
:105930000AC5F5C40F94DA14F6C00F94A212F3C08E
:1059400061E083E50E94654391E089270F94E814A4
:10595000EAC081E080931F150E94607910921F15A4
:10596000882309F4E0C00E94E03684EC9AE00E94AB
:10597000BA36D9C080914D1382FF04C080648093F1
:105980004D13D1C083FFCFC00E94FEF1CCC00E9456
:105990001996C9C00E94EF95082F87FDC4C085E500
:1059A0000E94FB428823B1F1E02E002E000CFF087C
:1059B0000E94C4424B015C0120E030E0A9010F9439
:1059C000795087FF04C0B7FAB094B7F8B094C70114
:1059D00023E0880F991F2A95E1F79C01245D3A4E38
:1059E0007901D9018D929D92AD92BC92139720E0DE
:1059F00030E048E453E4C501B4010F94795018161F
:105A00004CF480E090E0A8E4B3E4F7018083918354
:105A1000A283B3838CE40E94FB42882309F483C0F1
:105A2000002E000C110B0E94C4426B017C0120E08F
:105A300030E0A9010F94795087FF04C0F7FAF09481
:105A4000F7F8F09483E0000F111F8A95E1F7045DE9
:105A50001A4ED8011496CD92DD92ED92FC921797D2
:105A600020E030E048E453E4C701B6010F947950D8
:105A700018160CF058C080E090E0A8E4B3E4F801F8
:105A800084839583A683B7834EC081E08093FA0711
:105A90001092471760E083E50E946543811143C07F
:105AA0000E94D45B40C00E94FBC46D337105810528
:105AB000910520F087EE9AE00F941C3183EE9AE076
:105AC0000F941C318FEC9AE00E94BA3684E697E17D
:105AD000909337068093360626C00E9415F223C0A5
